:020000040800F2
:10600000B01900209D80000841620008436200082A
:10601000476200084B6200084F6200080000000061
:1060200000000000000000000000000053620008B3
:10603000556200080000000057620008596200081D
:10604000B7800008B7800008B7800008B780000854
:10605000B7800008B7800008B7800008B780000844
:10606000B7800008B7800008B7800008B780000834
:10607000B7800008B7800008B7800008B780000824
:10608000B7800008B7800008B7800008B780000814
:10609000B7800008B7800008B7800008B780000804
:1060A000B7800008B7800008B7800008B7800008F4
:1060B000B7800008B7800008B7800008B7800008E4
:1060C000B7800008B7800008B7800008B7800008D4
:1060D000B7800008EB7D0008B7800008B780000893
:1060E000B7800008B7800008B780000800F002F809
:1060F00000F090F80AA090E8000C82448344AAF1D2
:106100000107DA4501D100F085F8AFF2090EBAE8CF
:106110000F0013F0010F18BFFB1A43F001031847DB
:10612000CC660000EC660000103A24BF78C878C145
:10613000FAD8520724BF30C830C144BF04680C608D
:10614000704700000023002400250026103A28BFD5
:1061500078C1FBD8520728BF30C148BF0B607047D9
:106160006E2903F07B83702903F0BD84662904F057
:10617000C385652904F0C085672904F0BD856129C0
:10618000AFF3008003681B0A28BF41F08001692932
:1061900003F02883642903F02583752903F0228303
:1061A0006F2903F04A84782903F08984E92903F0F0
:1061B000E583E42903F0E283F52903F0DF83EF2987
:1061C00003F04784F82903F088840368DB0928BFBB
:1061D00041F08001632904F00C80732904F01180E0
:1061E000E32904F01C80F32904F02180002070478B
:1061F0001FB504F06DF804000020002104F066FDD6
:10620000401C60600020002104F04AFDE0601FBDDA
:1062100010B510BD04F02FF81146FFF7E9FF00F0AC
:1062200008F804F00BF903B4FFF7F2FF03BC01F028
:1062300081FD10B501F010FF01F03FFB002010BD03
:10624000704700BFFEE700BFFEE700BFFEE700BFEC
:10625000FEE7704770477047704700000CB500209C
:10626000019000906C48006840F480306A490860F2
:1062700000BF6948006800F4003000900198401C9D
:106280000190009818B90198B0F5A06FF1D162485B
:10629000006800F4003010B10120009001E00020FF
:1062A00000900098012843D15C48006840F010003D
:1062B0005A4908600846006820F003000860084654
:1062C000006840F002000860534840685249486046
:1062D0000846406848600846406840F4806048606E
:1062E0000846406820F47C1048600846406840F446
:1062F000E81048600846006840F08070086000BF01
:106300004548006800F000700028F9D04248406815
:1063100020F00300404948600846406840F0020011
:10632000486000BF3C48406800F00C000828F9D1E4
:106330000CBD10B5FFF792FF10BD10B536480068D0
:1063400040F001003449086008464068344908407C
:106350003149486008460068324908402E490860C3
:106360000846006820F4802008600846406820F451
:10637000FE0048604FF41F008860FFF7DAFF4FF01F
:1063800000602949086010BD10B5002100200022DE
:10639000214B5B6803F00C0121B1042906D00829C8
:1063A00028D107E0214B224C236027E01F4B204CD3
:1063B000236023E0184B5B6803F47010164B5B6896
:1063C00003F48032022303EB904022B9194B43437C
:1063D000174C23600DE0104B5B6803F4003323B1CE
:1063E000144B4343124C236003E0104B4343104CC7
:1063F000236003E00D4B0E4C236000BF00BF064B33
:106400005B68C3F303130C4CE15C094B1B68CB4086
:10641000074C236010BD0000001002400020024025
:106420000000FFF8FFFFF6FE08ED00E000127A0022
:106430000010002000093D000410002008B50121D3
:10644000042002F0D5F92020ADF8000010208DF8CE
:10645000030003208DF802006946044801F00CFF98
:106460002021024801F0B5FF08BD000000080140EE
:1064700008B51748006858B90A2001F02EFC1448E6
:10648000006828B91348807840F0010011498870ED
:1064900004208DF803004FF4E040ADF80000694699
:1064A0000D4801F0E9FE08BD08B50121082002F001
:1064B0009FF948208DF803004FF48050ADF800009C
:1064C0006946054801F0D8FEFFF7D2FF08BD00007D
:1064D00030812142D8110020000C014008B5012173
:1064E0000D2002F085F90121FE4801F096FF4FF4DE
:1064F0007C70ADF8000003208DF8020010208DF8AC
:1065000003006946F84801F0B7FE0C20ADF8000022
:106510006946F64801F0B0FE0421F44801F059FF45
:106520000821F24801F055FF48208DF8030048F299
:10653000D000ADF800006946EC4801F09DFE09204E
:10654000ADF800006946E84801F096FE08BD10B5B8
:10655000044614B10120E6490870E5480078002897
:106560003DD0E448006890B1E348006878B1E24863
:10657000001D006858B1E0480838006838B1DD48AF
:106580000C30006818B1DC482430006838BB0520A6
:1065900001F0A3FB0020D6490870D648006808B96E
:1065A000012010BDD448006808B90220F9E7D2489C
:1065B000001D006808B90320F3E7CF4824300068C5
:1065C00008B90420EDE7CC480838006808B9052070
:1065D000E7E7C8480C300068F8B90620E1E7C5488D
:1065E0000068012819D1C4480068012815D1C248A3
:1065F000001D0068012810D1BF4824300068012820
:106600000BD1BD4808380068012806D1B9480C30C4
:106610000068012801D1B64908700020C1E70021B7
:10662000082117E000F0800222B10122B14BA4330F
:106630001A6003E00022AF4BA4331A600022AD4B76
:10664000A0331A600122AD4BC3F8A0214206100E00
:106650004A1ED1B20029E5DC704710B5044600207F
:10666000A4499C3108602046FFF7D9FF10BD10B542
:10667000044601209F499C3108602046FFF7CFFF68
:1066800010BD10B5044601209A499C3108602012C3
:10669000FFF7C5FFE0B2FFF7C2FF10BD30B50546FA
:1066A0000C462846FFF7D9FF2046FFF7E0FF30BD34
:1066B00010B500208F4998310860642001F00DFB6F
:1066C00001208E49C1F89801322001F006FB10BD6F
:1066D000F0B504460D4616461F462A20FFF7BDFFBB
:1066E0000020FFF7C4FF611CC8B2FFF7C0FF002005
:1066F000FFF7BDFF711CC8B2FFF7B9FF2B20FFF7F2
:10670000ACFF0020FFF7B3FF05F11A01C8B2FFF795
:10671000AEFF0020FFF7ABFF07F11A01C8B2FFF789
:10672000A6FF2C20FFF799FFF0BD70B506464F235A
:106730009F2200210846FFF7CBFF2C20FFF78DFF9B
:10674000002408E0002503E03046FFF79AFF6D1CA7
:10675000502DF9D3641CA02CF4D370BD10B5FFF7F5
:10676000BDFEFFF7A5FF1120FFF777FF782001F0AE
:10677000B4FA2120FFF771FF2120FFF76EFFB1204F
:10678000FFF76BFF0520FFF772FF3A20FFF76FFF5F
:106790003A20FFF76CFFB220FFF75FFF0520FFF7FD
:1067A00066FF3A20FFF763FF3A20FFF760FFB32050
:1067B000FFF753FF0520FFF75AFF3A20FFF757FF77
:1067C0003A20FFF754FF0520FFF751FF3A20FFF76B
:1067D0004EFF3A20FFF74BFFB420FFF73EFF0320A8
:1067E000FFF745FFC020FFF738FF6220FFF73FFFAC
:1067F0000220FFF73CFF0420FFF739FFC120FFF71D
:106800002CFFC020FFF733FFC220FFF726FF0D202B
:10681000FFF72DFF0020FFF72AFFC320FFF71DFF22
:106820008D20FFF724FF6A20FFF721FFC420FFF728
:1068300014FF8D20FFF71BFFEE20FFF718FFC52088
:10684000FFF70BFF0E20FFF712FFE020FFF705FF19
:106850001020FFF70CFF0E20FFF709FF0220FFF7C3
:1068600006FF0320FFF703FF0E20FFF700FF0720BE
:10687000FFF7FDFE0220FFF7FAFE0720FFF7F7FE05
:106880000A20FFF7F4FE1220FFF7F1FE2720FFF7A2
:10689000EEFE3720FFF7EBFE0020FFF7E8FE0D20AD
:1068A000FFF7E5FE0E20FFF7E2FE1020FFF7DFFE08
:1068B000E120FFF7D2FE1020FFF7D9FE0E20FFF7F0
:1068C000D6FE0320FFF7D3FE0320FFF7D0FE0F20F4
:1068D000FFF7CDFE0620FFF7CAFE0220FFF7C7FE36
:1068E00008200DE000043000000C014000080140C9
:1068F0001410002000812142180121420080214211
:10690000FFF7B5FE0A20FFF7B2FE1320FFF7AFFE38
:106910002620FFF7ACFE3620FFF7A9FE0020FFF788
:10692000A6FE0D20FFF7A3FE0E20FFF7A0FE10200D
:10693000FFF79DFE3A20FFF790FE0520FFF797FE38
:106940003620FFF78AFE6820FFF791FE2920FFF727
:1069500084FE0120F94908600020F949C1F894013A
:10696000FFF7E3FE10BD30B504460D462B46224628
:1069700029462046FFF7ACFE30BD70B504460D46F3
:106980001646681C83B2601C82B229462046FFF777
:106990009FFE3046FFF775FE70BD60B505460E469A
:1069A00031462846FFF7DFFFE0B2FFF760FE2046E2
:1069B00060BD10B50246012000E050430B1EA1F15E
:1069C0000104E1B2F9D110BD0246002100BF08E088
:1069D000DC4850F82100904202DB481CC0B27047EE
:1069E000491C0829F4DB0020F9E72DE9F0470646A9
:1069F0000F4690469946DDF820A034460CE03D460F
:106A000006E0524629462046FFF7B7FF681CC5B28C
:106A10004D45F6DD601CC4B24445F0DDBDE8F087AD
:106A20002DE9FF4F04460E461F46DDF834B0A2465E
:106A300000252DE0C44800EB8B1010F805804FF0C6
:106A400000091FE008F0800028B131462046029A74
:106A5000FFF793FF04E03A4631462046FFF78DFFEB
:106A60004FEA48604FEA1068601CC4B2A4EB0A0009
:106A7000102803D15446701CC6B206E009F101008B
:106A800000F0FF09B9F1080FDCDB00BF681CC5B2DC
:106A9000402DCFDBBDE8FF8F2DE9FF4F81B00546CC
:106AA00088469146DDE90EA64FF0000B00242EE04B
:106AB000301B401EC1B20A20FFF77BFFBAFBF0F08B
:106AC0000A21B0FBF1F201FB1207BBF1000F11D15B
:106AD000701EA0420EDD5FB90020102101FB0451A1
:106AE0000090C8B24A464146049BFFF799FF0CE06C
:106AF0004FF0010B102101FB0451C8B200974A4628
:106B00004146049BFFF78CFF00BF601CC4B2B44237
:106B1000CEDB05B0BDE8F08F2DE9F04F0746884683
:106B200092469946002531E000242BE087490998D8
:106B300001EBC01000EB850010F804B000261DE04A
:106B40008020304100EA0B0050B108EB050291B201
:106B500007EBC402324490B25246FFF70EFF0BE03F
:106B6000CA4509D008EB050291B207EBC4023244D2
:106B700090B24A46FFF701FF701CC6B2082EDFDB59
:106B8000601CC4B2042CD1DB681CC5B2202DCBDB49
:106B9000BDE8F08F2DE9FF4F81B00546884691464C
:106BA000DDE90EA64FF0000B00242CE0301B401E48
:106BB000C1B20A20FFF7FDFEBAFBF0F00A21B0FBDC
:106BC000F1F201FB1207BBF1000F10D1701EA042C1
:106BD0000DDD57B900201A21009001FB04504A46F0
:106BE0004146049BFFF798FF0BE04FF0010B1A2181
:106BF00001FB045000974A464146049BFFF78CFF77
:106C000000BF601CC4B2B442D0DB05B0BDE8F08F59
:106C10002DE9F0470746884692469946089E202E61
:106C200003DDA6F12000C6B200E00026002420E02B
:106C300000251AE004EB06104549085C8021294133
:106C4000084040B108EB040291B27A1990B2524662
:106C5000FFF793FE07E008EB040291B27A1990B2B5
:106C60004A46FFF78AFE681CC5B2082DE2DB601CAD
:106C7000C4B2102CDCDBBDE8F0872DE9FF4F81B0FA
:106C8000054688469146DDE90EA64FF0000B00242C
:106C900030E0301B401EC1B20A20FFF78AFE9AFB8B
:106CA000F0F00A2190FBF1F201FB1200C7B2BBF138
:106CB000000F10D1701EA0420DDD57B93020082101
:106CC000009001FB04504A464146049BFFF7A0FF99
:106CD0000EE04FF0010B07F13000C0B20821009028
:106CE00001FB04504A464146049BFFF791FF00BF59
:106CF000601CC4B2B442CCDB05B0BDE8F08F2DE916
:106D0000F84F0746884693469A46DDF82890009744
:106D1000C2E099F8000080284ADA99F800600D2E48
:106D200005D1009F08F110001FFA80F83DE0202EE9
:106D300010DDA6F1200086B20DE000009081214216
:106D400000802142F4C60008EDB200082DB600080C
:106D5000FCAC00080026002422E000251CE004EB27
:106D60000610FE49085C80212941084040B108EB2B
:106D7000040291B27A1990B25A46FFF7FEFD09E07B
:106D8000D34507D008EB040291B27A1990B252466B
:106D9000FFF7F3FD681CC5B2082DE0DB601CC4B230
:106DA000102CDADB07F1080087B209F1010973E062
:106DB000002669E006EB0610E94911F8100099F881
:106DC000001088425ED106EB0610E54901EB400059
:106DD000407899F80110884254D100244FE00025F2
:106DE00020E006EB0610DE4901EB4000801C10F8A5
:106DF000141080202841014041B108EB040291B2F7
:106E00007A1990B25A46FFF7B8FD09E0D34507D08A
:106E100008EB040291B27A1990B25246FFF7ADFD29
:106E2000681CC5B2082DDCDB002524E006EB06104B
:106E3000CB4901EB4000801C012101EB4401405C87
:106E400080212941084048B108EB040291B27A1927
:106E5000083290B25A46FFF790FD0AE0D34508D0B9
:106E600008EB040291B27A19083290B25246FFF749
:106E700084FD681CC5B2082DD8DB601CC4B2102C80
:106E8000ADDB03E0701C86B2222E93DB00BF09F15C
:106E9000020907F1100087B299F8000000287FF47A
:106EA00038AFBDE8F88F2DE9FC4106460C460025B9
:106EB000002036239F2216210090FFF796FD002E1A
:106EC00009DD0A2000234FF4FC62162100901846C9
:106ED000FFF7A6FD0AE0002E08DA0B2000234FF48E
:106EE000FC62162100901846FFF79AFD301E01DB68
:106EF000014600E041420F463846FFF765FD054672
:106F000055B90C2000234FF4FC62162100908C2010
:106F1000FFF786FDBDE8FC815FBB01200021CDE9C4
:106F20000010611C9422A2EB0111C8B200234FF49F
:106F3000FC621621FFF7B0FD4FF4FC602101C1F1A6
:106F40009801CAB22101C1F196010090C8B2312363
:106F50002F21FFF74AFD00202101C1F1A001CDE959
:106F60000004C8B200234FF4FC621621FFF794FD21
:106F7000D0E7002C3ADD062C00DD062421460A204D
:106F8000FFF717FD97FBF0F8281BC0B29421A1EB87
:106F90000511CDE90080C8B200234FF4FC62162130
:106FA000FFF77AFD4FF4FC602101C1F19801CAB2EC
:106FB0002101C1F196010090C8B231232F21FFF7C2
:106FC00014FD21460A20FFF7F4FC97FBF0F100FBCB
:106FD00011782101C1F1A001C8B200234FF4FC6275
:106FE0001621CDE90084FFF757FD1BE00020362372
:106FF0002022162100901020FFF7F7FC21460A20DE
:10700000FFF7D7FC97FBF0F8281BC0B2A021A1EB3B
:107010000511CDE90080C8B200234FF4FC621621AF
:10702000FFF73AFD00BF75E7F8B504460D46164672
:10703000AF1CFBB204F11307FAB2AF1CF9B2671C24
:10704000F8B20096FFF7D1FC05F10C07FBB204F192
:107050001307FAB205F10C07F9B2671CF8B20096F3
:10706000FFF7C3FC05F10C07FBB2671CFAB2AF1CBB
:10707000F9B2671CF8B20096FFF7B7FC05F10C07F0
:10708000FBB204F11307FAB2AF1CF9B204F1130713
:10709000F8B20096FFF7A9FC05F10907FBB204F16D
:1070A0001507FAB26F1DF9B204F11407F8B2009691
:1070B000FFF79BFCF8BD2DE9F84305460E46174641
:1070C000984637B94FF4784231462846FFF7ACFF6F
:1070D00005E04FF6FF7231462846FFF7A5FF012471
:1070E00041E0A7421CDB06F10A0C0CF0FF03A4F1FF
:1070F000010C05F1050909EB8C0C0CF0FF0206F1FF
:10710000040C0CF0FF01A4F1010C05F1030909EBDB
:107110008C0C0CF0FF00CDF80080FFF766FC1BE044
:10712000002006F10A0C0CF0FF03A4F1010C05F19C
:10713000050909EB8C0C0CF0FF0206F1040C0CF0B5
:10714000FF01A4F1010C05F1030909EB8C0C00907F
:107150000CF0FF00FFF749FC601C03E0FCAC0008EA
:10716000AEBD0008C4B2052CBBDBBDE8F8830CB58E
:10717000F9A000234FF6FF72194600901846FFF75A
:10718000BEFDF8A000234FF6E0721946009064207F
:10719000FFF7B5FDF4A000234FF6FF7219460090EB
:1071A0006E20FFF7ACFDF1A000234FF6E072194608
:1071B00000908220FFF7A3FDEDA000234FF6FF72A1
:1071C0003E2100902620FFF79AFDEBA000234FF60A
:1071D000E0723E2100906C20FFF791FDE6A00023B5
:1071E0004FF6E0723E2100908420FFF788FD0220D8
:1071F00000210B464FF6E072CDE900103E215C20E5
:10720000FFF73BFD022000210B464FF6E072CDE96F
:1072100000103E217420FFF730FD022000210B46B4
:107220004FF6E072CDE900103E218C20FFF725FDDE
:1072300002210020FFF737FE4FF4FC6305223F21B7
:107240000020FFF738FF0CBD0FB40CB59DF80C0003
:1072500020B9FFF78CFF02B05DF814FBBDF81000F9
:10726000B0F5837F66D008DCA0F2011000287DD045
:1072700001287CD0022839D1D9E0A0F2211010B128
:107280000128F8D133E0002010236022014600904D
:107290004020FFF7AAFBB9A000234FF6FF72194662
:1072A00000901846FFF72BFD002010239F22014677
:1072B00000908220FFF799FB4FF6E07006238722AB
:1072C000042100908520FFF790FB002005238622F3
:1072D000194600901046FFF788FBABA000234FF63D
:1072E000E072022100908A20FFF709FDC2E0002031
:1072F00010236022014600904020FFF776FBA3A0F8
:1073000000234FF6FF72194600901846FFF7F7FC6E
:10731000002010239F22014600908220FFF765FB8A
:107320009DA000234FF6E072194600908A20FFF7D7
:10733000E6FC9FE0002010236022014600904020E0
:10734000FFF753FB95A000234FF6FF7219460090FC
:107350001846FFF7D4FC002010239F22014600901E
:107360008220FFF742FB90A0002301E008E03BE011
:107370004FF6E072194600908220FFF7C0FC79E0DA
:10738000002010236022014600904020FFF72DFBD3
:1073900086A000234FF6FF72194600901846FFF7AB
:1073A000AEFC002010239F22014600908220FFF7B0
:1073B0001CFB4FF6E07006238722042100908520F5
:1073C000FFF713FB00200523862219460090104684
:1073D000FFF70BFB6CA000234FF6E0720221009038
:1073E0008A20FFF78CFC45E0002010236022014634
:1073F00000904020FFF7F9FA6FA000234FF6FF72CC
:10740000194600901846FFF77AFC002010239F22AF
:10741000014600908220FFF7E8FA5FA000234FF6B4
:10742000E072194600908A20FFF769FC00BF002037
:1074300010236022014600904020FFF7D6FA61A099
:1074400000234FF6FF72194600901846FFF757FCCD
:10745000002010239F22014600908220FFF7C5FAEA
:107460005CA000234FF6E072194600908220FFF7DF
:1074700046FC00BF00BF01219DF8120000234FF61B
:10748000E072CDE9000119466420FFF7F6FB9DF894
:107490000E100598FFF707FD02219DF81B00002341
:1074A0004FF6E072CDE900013E215C20FFF7E5FBDD
:1074B00002219DF81C0000234FF6E072CDE9000187
:1074C0003E217420FFF7D9FB02219DF81D00002307
:1074D0004FF6E072CDE900013E218C20FFF7CDFB95
:1074E00000BFB8E60FB410B500214A1E00BF2EE061
:1074F00001EB8103384810F8230001281CD19DF8C6
:1075000015309DF8140043EA002301EB8104324852
:1075100000EB8400808883420ED101EB81032E486A
:1075200000EB83008079029B03F00703984203D1AC
:1075300048B210BC5DF814FB501C30B901EB81035C
:10754000254810F8230000B94AB2481CC1B21029DE
:10755000CEDB1046EDE70000CEDECAFDBEDD2E2EEE
:107560002E00000020000000BAC5000020202000EE
:10757000B8FCD0C2D3DA00003A000000CDC1C8C0C8
:10758000CEC2B6C80000000043000000CDC1C8C094
:10759000CAAAB6C80000000025000000B9E2D5D58F
:1075A000C7BFB6C8000000006C780000BBB7BEB310
:1075B000CEC2B6C800000000BBB7BEB3CAAAB6C8E8
:1075C00000000000B6FED1F5BBAFCCBCC5A8B6C864
:1075D0000000000070706D000C12002010B5024613
:1075E000002351B20FE0481C41B20F2900DD0021F9
:1075F00001EB8104FE4810F82400012801D1C8B233
:1076000010BD581CC3B2102BEDDB1046F8E710B5C7
:107610000246002351B20FE0481E41B2002900DAB1
:107620000F2101EB8104F24810F82400012801D158
:10763000C8B210BD581CC3B2102BEDDB1046F8E7E2
:107640002DE9F84305460F4600264FF4FA7802204C
:10765000E849087000BF0821E64800F0B8FC00289F
:10766000F9D1C4E000F0E1FC00287CD00021E24820
:107670008173C07B012803D0DF48C07B0228F0D192
:10768000DD48807D0F28ECD0DB48007CF0BBDA4879
:10769000407CD8BBD848807CC010D5490839487098
:1076A000D548807C4007C10ED348C07C41EAA01178
:1076B000CF4808388170D048C07CC0F34401CC4822
:1076C0000838C170CC48C07CC007C10ECA48007DD4
:1076D00041EA1011C64808380171C748007D00070B
:1076E000810EC548407D41EAA011C148083841716A
:1076F000C148407D00F03F01BD4808388171BE4857
:10770000807D00F00301BA48083800E001E0C17153
:107710006DE0B94840690090B748001D0FC8FFF7F9
:10772000E1FE0546681C002861D0012105EB8502B9
:10773000AF4800F8221005EB850200EB8200417093
:10774000AD48417C007C41EA002105EB8502A84858
:1077500000EB82008180A848807D00F00F0105EBDE
:107760008502A34800E021E000EB82008170A2487E
:10777000007900F0070105EB85029D4800EB8200CF
:1077800081719D48807C01069B48C07C41EA004194
:107790009948007D41EA00219748407D014305EB6F
:1077A0008502934800EB8200816020E0022000F017
:1077B00094FA322096FBF0F100FB116088B98F48F3
:1077C000006808B9012000E000208C4908608C485E
:1077D000D0F8940108B9012000E000208749083161
:1077E0000860B8EB460F00DA02E0701C86B239E799
:1077F00000BF00244DE004EB84017D4810F8210017
:10780000012844D104EB8401794800EB81004078E1
:1078100001283CD1002104EB8402754800EB820072
:10782000417073480838417804EB8402083000EB5B
:10783000820001736E480838817804EB84020830B6
:1078400000EB820041736A480838C17804EB840277
:10785000083000EB8200817365480838017904EB39
:107860008402083000EB8200C17361480838417916
:1078700004EB8402083000EB820001745C48083895
:10788000817904EB8402083000EB82004174601CB3
:10789000C4B2102CAFDB07EB8701554800EB810029
:1078A000006907EB87010090514800EB810C9CE8D0
:1078B0000F00FFF7C9FCBDE8F88308B50024A14616
:1078C000A04600BF00BF651E0026BDE100F0ADFB75
:1078D00000286CD0002148488173C07B0128F4D176
:1078E0004548807D0F28F0D100274348417C007C2B
:1078F00041EA002000EB4001C1EBC0104FF6FF71E0
:1079000001EAC00ACFE000F090FB00287AD0002105
:1079100039488173C07B012803D03748C07B0228D7
:10792000F0D13548807D0F28ECD03348007CE8BB8F
:107930003148407CD0BB3048807CC0102C4908398D
:1079400048702D48807C4007C10E2B48C07C41EA1E
:10795000A0112748083881702748C07CC0F3440133
:1079600023480838C1702448C07CC007C10E224893
:10797000007D41EA10111E48083801711E48007D43
:107980000007810E1C48407D41EAA01118480838C4
:1079900041711948407D00F03F0115480838817158
:1079A0001548807D00F00301114801E003E0DFE0AD
:1079B0000838C17177E01048406900900E48001DFA
:1079C0000FC8FFF78FFD0546681C00286BD001210A
:1079D00005EB8502064800F8221005EB850200EB56
:1079E000820041700448417C007C41EA00210AE0A9
:1079F0000C12002022100020D81100208C012142FE
:107A0000000021422EE005EB8502904800EB820049
:107A100081808F48807D00F00F0105EB85028B4847
:107A200000EB820081708A48007900F0070105EBC5
:107A30008502864800EB820081718548807C0106C2
:107A40008348C07C41EA00418148007D41EA002131
:107A50007F48407D014305EB85027C4800EB8200B6
:107A6000816020E0022000F038F9322097FBF0F12D
:107A700000FB117088B97748006808B9012000E060
:107A80000020744908607448D0F8940108B90120B6
:107A900000E000206F4908310860BAEB470F00DAB8
:107AA00002E0781C87B22EE700BF00244DE004EB13
:107AB0008401664810F82100012844D104EB8401B8
:107AC000624800EB8100407801283CD1002104EBA2
:107AD00084025E4800EB820041705C4808384178BF
:107AE00004EB8402083000EB820001735748083829
:107AF000817804EB8402083000EB82004173534824
:107B00000838C17804EB8402083000EB82008173EE
:107B10004E480838017904EB8402083000EB8200FB
:107B2000C1734A480838417904EB8402083000EBFD
:107B30008200017445480838817904EB84020830DA
:107B400000EB82004174601CC4B2102CAFDB06EB6A
:107B500086013E4800EB8100006906EB860100903B
:107B60003A4800EB810C9CE80F00FFF76DFB6BE0DF
:107B70000020FEF7ECFC8046B8F1000F43D0B8F1CE
:107B8000070F3FD2DFE808F03E0409121314290062
:107B900031462846FFF754FD34E03048006808B904
:107BA000012000E000202D4908602BE02AE029E0B8
:107BB0003046FFF713FD064606EB8601234800EB2F
:107BC0008100006906EB86010090204800EB810CE3
:107BD0009CE80F00FFF738FB14E03046FFF717FD75
:107BE000064606EB8601194800EB8100006906EBAA
:107BF00086010090154800EB810C9CE80F00FFF710
:107C000023FB00BF20E0052000F067F8C82099FBA7
:107C1000F0F100FB119098B90E48006808B90120F6
:107C200000E000200B4908600B48D0F8940108B927
:107C3000012000E000200749083108604FF00009EA
:107C400009F1010000F0FF0940E600000C120020DD
:107C5000D81100208C012142000021429081214254
:107C600010B56FF0040000F088FA2E4800682E4925
:107C7000B0FBF1F02D4908700846007800EB400198
:107C8000C1EBC0104FF6FF7101EAC000284908801F
:107C900010BD0146254A12784A434FF0E0235A614D
:107CA00000229A611A46126942F001021A6100BF6D
:107CB0004FF0E022106900F001021AB100F48032A6
:107CC000002AF5D04FF0E022126922F001024FF0B5
:107CD000E0231A6100229A6170470146144A128813
:107CE0004A434FF0E0235A6100229A611A46126912
:107CF00042F001021A6100BF4FF0E022106900F06B
:107D000001021AB100F48032002AF5D04FF0E022CF
:107D1000126922F001024FF0E0231A6100229A61F9
:107D2000704700000010002000127A00161000209A
:107D300018100020014600BF704700BF664A128835
:107D400002F04002002AF9D0C2B2634B1B1D1A8018
:107D5000704710B586B00446012144F2040000F0DB
:107D600047FD4FF40070ADF8140003208DF81600A5
:107D700018208DF8170005A9584800F07DFA4FF437
:107D80008060ADF8140004208DF8170005A9534851
:107D900000F072FA25208DF8000003208DF8010014
:107DA0008DF8020001208DF80300684600F09BF971
:107DB00001940020ADF80800ADF80A00ADF80C0001
:107DC000ADF810000C20ADF80E0001A9424801F0FA
:107DD000AEFA012240F225513F4801F040FB01215B
:107DE0003D4801F030FB06B010BD10B540F2255102
:107DF000394801F019FC10B3374801F095FBC4B2C3
:107E00003748008800F40040C8B93548008800F4BD
:107E1000804060B10A2C03D000203149088020E066
:107E20002F48008840F400402D49088019E00D2CAF
:107E300006D12B48008840F480402949088010E092
:107E400027480088C0F30D0026490C5424480088B8
:107E5000401C2349088008460088C72801DD00200F
:107E6000088010BD0FB438B505A800901E48009AD0
:107E7000049901F01FFC002000901B4801F02CFC2D
:107E800085B200240DE000BF1348008800F04000D8
:107E90000028F9D01448005D0F49091D0880601CB6
:107EA00084B2AC42EFDB00BF0B48008800F040001A
:107EB0000028F9D00D200849091D088000BF064898
:107EC000008800F040000028F9D00A200249091D6E
:107ED000088038BC5DF814FB003801400008014000
:107EE0002010002048100020101100202DE9F04142
:107EF00088B004460D4616461F46DDF8388001213D
:107F0000042000F075FC0121480600F07EFC4FF4CF
:107F10008050ADF81C0003208DF81E0018208DF84D
:107F20001F0007A9494800F0A7F94FF40060ADF819
:107F30001C0048208DF81F0007A9444800F09CF958
:107F400000208DF816008DF817008DF8180001201C
:107F50008DF8190000208DF81A008DF81B008DF89F
:107F600012808DF813408DF814608DF81550ADF81F
:107F7000107004A9364800F0B8FC00208DF80A0003
:107F80008DF80B0001208DF80C000020ADF80000EA
:107F9000ADF80200ADF80400ADF80600ADF8080039
:107FA00001208DF80D00684600F029FD00212948C8
:107FB00080F8201080F821104FF440702549088087
:107FC000084600888861002008B0BDE8F0812DE9EE
:107FD000F04107460D4600241E4880F8225000BF9D
:107FE00005E0395D1B4823300155601C84B2AC426A
:107FF000F7DB18491831164800F0F0FD064600245A
:1080000001E0601C84B23146114800F07FFE18B9CF
:1080100040F6FF708442F4DB40F6FF70844202DBDE
:108020000120BDE8F0810020FBE710B500210848E1
:1080300000F04CFF08B9002010BD064A121D0021B7
:10804000034800F0C0FE0348807BF5E700080140CC
:1080500000640040D811002008B50E480E490860A1
:10806000FFF7FEFD4FF4A06000F038F84FF4E13068
:10807000FFF76FFEFEF7E2F9FEF716FA0020012384
:10808000082207210090FFF731FFFEF767FBFFF79B
:108090006EF808BD0060000808ED00E00948804760
:1080A00009480047FEE7FEE7FEE7FEE7FEE7FEE7DA
:1080B000FEE7FEE7FEE7FEE704480549054A064BF2
:1080C000704700003B630008ED600008B01300201B
:1080D000B0190020B0150020B0150020314901432F
:1080E000314A1160704770B5002100230F22C47817
:1080F00004B32D4C246804F4E064C4F5E064210A60
:10810000C1F10403CA40447804FA03F184781440AE
:1081100021430901254C0678A155047804F01F0578
:108120000124AC4005786D11AD0005F1E025C5F8DE
:10813000004109E0047804F01F050124AC401C4D07
:108140000678761145F8264070BD1A4A0A40024367
:10815000154B1B1F1A60704739B1134A121D126864
:108160000243114B1B1D1A6006E00F4A121D1268D4
:1081700082430D4B1B1D1A607047042808D14FF035
:10818000E021096941F004014FF0E022116107E0AC
:108190004FF0E021096921F004014FF0E022116164
:1081A000704700000000FA050CED00E000E400E07C
:1081B00080E100E080FFFF1F10B50446CC488442F8
:1081C00008D10121042000F02DFB0021042000F043
:1081D00029FB46E0C748844208D10121082000F06D
:1081E00021FB0021082000F01DFB3AE0C248844238
:1081F00008D10121102000F015FB0021102000F013
:1082000011FB2EE0BD48844208D10121202000F05E
:1082100009FB0021202000F005FB22E0B848844241
:1082200008D10121402000F0FDFA0021402000F09B
:10823000F9FA16E0B348844208D10121802000F009
:10824000F1FA0021802000F0EDFA0AE0AE48844205
:1082500007D10121801500F0E5FA0021A01500F0FA
:10826000E1FA10BD10B50121084600F0DBFA00214B
:10827000012000F0D7FA10BD2DE9F041024600259B
:108280000026002000230024002791F803C00CF0F2
:108290000F0591F803C00CF0100CBCF1000F03D0D7
:1082A00091F802C04CEA050591F800C0BCF1000F3E
:1082B00031D0146800202BE04FF0010C0CFA00F3D1
:1082C000B1F800C00CEA03069E4220D183004FF0B3
:1082D0000F0C0CFA03F7BC4305FA03FC4CEA040448
:1082E00091F803C0BCF1280F06D14FF0010C0CFA35
:1082F00000FCC2F814C00AE091F803C0BCF1480FBA
:1083000005D14FF0010C0CFA00FCC2F810C0401C63
:108310000828D1D31460B1F800C0BCF1FF0F34DDE0
:10832000546800202EE000F1080C4FF0010808FA14
:108330000CF3B1F800C00CEA03069E4221D1830081
:108340004FF00F0C0CFA03F7BC4305FA03FC4CEAA0
:10835000040491F803C0BCF1280F05D100F1080C0A
:1083600008FA0CF8C2F8148091F803C0BCF1480F69
:1083700007D100F1080C4FF0010808FA0CF8C2F818
:108380001080401C0828CED35460BDE8F0814FF621
:10839000FF710180022181700421C1707047024683
:1083A000002093680B400BB1012000E000207047D3
:1083B0000146886880B2704702460020D3680B40AF
:1083C0000BB1012000E0002070470146C86880B270
:1083D000704701617047416170470AB1016100E077
:1083E00041617047C16070474FF480320A43826137
:1083F0008161826182698269704702460020434B35
:1084000018684FF68073184040EA021008433F4B4B
:10841000186070473E49C8617047F0B50A460023AE
:1084200000240021002500F00046B6F1004F02D1E3
:10843000364EF16901E0354E7168C0F3034583B2F1
:1084400000F44016B6F5401F08D121F070612F4EA0
:10845000766826F070662D4F7E6012E000F480167C
:10846000B6F5801F06D1032606FA05F4A14341F0B4
:10847000706106E0460D360103FA06F6B14341F09D
:10848000706122B1460D360103FA06F6314300F061
:108490000046B6F1004F02D11C4EF16101E01B4EC7
:1084A0007160F0BD30B500228B071C0F0F2303FA5B
:1084B00004F2164B08338C1053F824309343134CBA
:1084C00008348D1044F8253023468C1053F824309E
:1084D0008C07240F00FA04F423430C4C08348D104D
:1084E00044F8253030BD0A49DC310860704700008F
:1084F00000080140000C0140001001400014014040
:1085000000180140001C0140002001400000014013
:1085100000002042DF48006840F00100DD490860AB
:1085200008464068DC490840DA4948600846006867
:10853000DA490840D74908600846006820F48020DE
:1085400008600846406820F4FE0048604FF41F00B1
:1085500088607047CF49096821F48031CD4A1160A5
:108560001146096821F480211160B0F5803F03D0E5
:10857000B0F5802F0ED106E0C649096841F480317C
:10858000C44A116007E0C349096841F4A021C14A07
:10859000116000E000BF00BF704710B50146002227
:1085A000002300204A11012A02D1BA4C236806E0B8
:1085B000022A02D1B74C236A01E0B64C636A01F08B
:1085C0001F02012494401C400CB1012000E0002057
:1085D00010BD38B5002000900024002500BF3120D8
:1085E000FFF7DBFF05460098401C00900098B0F5AF
:1085F000A06F01D0002DF2D03120FFF7CEFF08B1DF
:10860000012400E00024204638BD01460020A14A94
:10861000106820F0F80040EAC10010607047A049DF
:1086200008607047024600209A4B586820F47C107E
:1086300042EA01031843974B58607047984908660F
:10864000704701460020934A506820F00300084319
:10865000506070478F48406800F00C00704701463A
:1086600000208C4A506820F0F000084350607047AA
:1086700001460020874A506820F4E06008435060BB
:10868000704701460020834A506820F4605040EA59
:10869000C1005060704729B17E4A527A02437D4B37
:1086A0005A7204E07B4A527A82437A4B5A7270477C
:1086B0007B49D8310860704701460020754A5068F0
:1086C00020F440400843506070470021714A203236
:1086D0001170704A82F82010012802D004280AD1B3
:1086E00004E001216B4A2032117005E00521694A3E
:1086F0002032117000E000BF00BF70476949086078
:1087000070476449096A0143624A116270476549CA
:1087100044390860704730B500210022002400234E
:108720005C4D6D6805F00C0121B1042905D00829C4
:1087300023D105E05C4D056022E05B4D05601FE044
:10874000544D6D6805F47012524D6D6805F4803417
:10875000022505EB92421CB9544D554305600BE0D0
:108760004C4D6D6805F400351DB1504D5543056005
:1087700002E04D4D5543056002E04B4D056000BFE2
:1087800000BF444D6D6805F0F0010909484D6B5C70
:108790000568DD4045603F4D6D6805F4E061090AFC
:1087A000434D6B5C4568DD4085603A4D6D6805F46E
:1087B0006051C90A3E4D6B5C4568DD40C560354D72
:1087C0006D6805F44041890B3A4D6B5CC568B5FB9B
:1087D000F3F5056130BD29B12E4A526902432D4B94
:1087E0005A6104E02B4A526982432A4B5A6170470E
:1087F00029B1284A92690243264B9A6104E0254A2E
:1088000092698243234B9A61704729B1214AD26908
:108810000243204BDA6104E01E4AD26982431D4BB9
:10882000DA61704729B11B4AD2680243194BDA60FA
:1088300004E0184AD2688243164BDA60704729B1C7
:10884000144A12690243134B1A6104E0114A126977
:108850008243104B1A6170471249403908607047D3
:108860000F49C86470470B49C87170470948406A8E
:1088700040F0807007494862704701460020054A71
:1088800092680A400AB1012000E0002070470149C7
:1088900088727047001002400000FFF8FFFFF6FEEC
:1088A000000042428004424200127A0000093D006A
:1088B000321000204210002010B50446FE488442C9
:1088C00009D101214806FFF7BAFF00214FF00070DF
:1088D000FFF7B5FF08E001218806FFF7B0FF002190
:1088E0004FF08060FFF7ABFF10BD30B502460020AF
:1088F0000023146824F002041460146844F0010496
:10890000146000E05B1C546804F001041CB94FF6CD
:10891000FF74A342F6D1546804F001040CB900209E
:108920006CE08C79012C04D1146844F0800414604C
:1089300003E0146824F080041460CC79012C04D185
:10894000146844F04004146003E0146824F0400408
:1089500014600C7A012C04D1146844F020041460D3
:1089600003E0146824F0200414604C7A012C04D134
:10897000146844F01004146003E0146824F0100438
:1089800014608C7A012C04D1146844F0080414603B
:1089900003E0146824F008041460CC7A012C04D19C
:1089A000146844F00404146003E0146824F0040420
:1089B00014608C78A407CD7844EA05640D7944EA04
:1089C00005444D7944EA05540D886D1E2C43D4614D
:1089D000146824F001041460002300E05B1C546858
:1089E00004F001041CB14FF6FF74A342F6D15468A1
:1089F00004F001040CB1002000E0012030BD10B5EE
:108A00000021837A012202FA03F1AC4A126842F093
:108A10000102AA4B1A60A94A1C3212688A43A74B6A
:108A20001C331A60027BCAB9A44A0C3212688A430A
:108A3000A24B0C331A604288C38842EA03439F4A20
:108A40004032847A42F834300288838842EA034311
:108A50009A4A4032847A02EBC4025360027B012AB4
:108A600019D1964A0C3212680A43944B0C331A609F
:108A70004288038842EA0343904A4032847A42F8AB
:108A80003430C288838842EA03438C4A4032847A75
:108A900002EBC4025360C27A3AB9884A121D1268C6
:108AA0008A43864B1B1D1A6006E0844A121D126819
:108AB0000A43824B1B1D1A60028932B97F4A143265
:108AC00012688A437D4B14331A600289012A06D149
:108AD0007A4A143212680A43784B14331A60427B84
:108AE000012A06D1754A1C3212680A43734B1C33A3
:108AF0001A60724A126822F00102704B1A6010BDAF
:108B000000218171C171017241728172C1728170E3
:108B1000C17003210171022141710121018070475F
:108B20006649096841F00101644A1160114609680B
:108B300043F60E729143614A11601146096841EA99
:108B4000002111601146096821F001011160704790
:108B500021B1026842F48032026003E0026822F42C
:108B6000803202607047E1B1026842F08002026028
:108B70004FF4C272125842F480734FF4C272135011
:108B80004FF4CA72125842F480734FF4CA721350F1
:108B90004FF4D272125842F480734FF4D2721350D1
:108BA0001BE0026822F0800202604FF4C272125889
:108BB00022F480734FF4C27213504FF4CA721258E9
:108BC00022F480734FF4CA7213504FF4D2721258C9
:108BD00022F480734FF4D2721350704710B50246DE
:108BE0000020936803F08063B3F1806F00D110E040
:108BF000936803F00063B3F1006F01D1012008E036
:108C0000936803F08053B3F1805F01D1022000E04C
:108C10000420042879D002F5C07303EB00131B680D
:108C200003F0010402F5C07303EB00131C600B7A20
:108C30007BB94B7A0C8843EA445302F5C07404EBC9
:108C400000142468234302F5C07404EB001423606D
:108C500010E00B7A4C6843EAC4034C7A234302F5D4
:108C6000C07404EB00142468234302F5C07404EBC1
:108C7000001423608B7A03F00F038B7202F5C0732C
:108C800003EB00135B6823F00F0402F5C07303EBE2
:108C900000135C6002F5C07303EB00135B688C7A11
:108CA000234302F5C07404EB001463608B7B1C0645
:108CB0004B7B44EA034403E000640040006600404C
:108CC0000B7B44EA0323CC7A234302F5C07404EB04
:108CD0000014A3608B7C1C064B7C44EA03440B7C91
:108CE00044EA0323CC7B234302F5C07404EB001455
:108CF000E36002F5C07303EB00131B6843F001044B
:108D000002F5C07303EB00131C6010BD10B50246E2
:108D1000002321B1012907D002290FD109E0906871
:108D2000F94C00EA04030BE09068F84C00EA0403F5
:108D300006E09068F64C00EA040301E0002300BF5F
:108D400000BFF44C181BA34216D007DC83B16FF0B0
:108D50008060184470B1022818D111E0B0F5007F8E
:108D600010D0ED4C204448B1B0F5003F0ED10BE0DF
:108D700002230DE000230BE0002309E0002307E0BD
:108D8000012305E0012303E0012301E0002300BFEC
:108D900000BFD8B210BD21B1012907D002290FD1DF
:108DA00009E0826842F0800282600AE0826842F450
:108DB0000042826005E0826842F40002826000E0C6
:108DC00000BF00BF704710B500F5D87303EB011367
:108DD0001B6803F004031372137A53B900F5D873B8
:108DE00003EB01131B6840F2FF7404EA5353136052
:108DF00009E000F5D87303EB01131B686FF06044C2
:108E000004EAD303536000F5D87303EB01131B6826
:108E100003F00203537200F5D87303EB01135B6890
:108E200003F00F03937200F5D87303EB01135B6833
:108E30001B0AD37400F5D87303EB01139B68D3723C
:108E400000F5D87303EB01139B681C0A147300F53B
:108E5000D87303EB01139B681C0C547300F5D87393
:108E600003EB01139B681B0E937300F5D87303EBA0
:108E70000113DB68D37300F5D87303EB0113DB68D0
:108E80001C0A147400F5D87303EB0113DB681C0C87
:108E9000547400F5D87303EB0113DB681B0E937455
:108EA00021B9C36843F02003C36003E0036943F0C2
:108EB0002003036110BD21B9C26842F02002C260E4
:108EC00003E0026942F0200202617047024600207E
:108ED00019B9D36803F0030006E0012903D113692F
:108EE00003F0030000E00020704710B502460B4677
:108EF00000204FF6FF71BBB9146824F0020444F05F
:108F00000104146000E0491E546804F00304012CBD
:108F100001D00029F7D1546804F00304012C01D0DA
:108F2000002032E0012030E0012B13D1146824F03E
:108F30000304146000E0491E546804F003040CB1FB
:108F40000029F8D1546804F003040CB100201CE09F
:108F500001201AE0022B17D1146824F0010444F018
:108F60000204146000E0491E546804F00304022C5B
:108F700001D00029F7D1546804F00304022C01D079
:108F8000002002E0012000E0002010BD014600208A
:108F90000A6822F0010242F002020A604A6802F006
:108FA0000302022A00D10120704701464FF6FF72EA
:108FB00000200B6823F002030B6000E0521E4B6898
:108FC00003F00203022B01D1002AF7D14B6803F012
:108FD0000203022B00D001207047014600208A695D
:108FE00002F070007047014600208A69100E704739
:108FF000014600208A69C2F3074070471AB14369ED
:109000000B43436102E043698B434361704710B5F2
:109010000246002001F4700343B19369C1F31304C5
:1090200023400BB101202DE000202BE001F08073E4
:1090300043B15368C1F3130423400BB1012021E075
:1090400000201FE001F0006343B19368C1F31304F3
:1090500023400BB1012015E0002013E001F0007364
:1090600043B1D368C1F3130423400BB1012009E0DD
:10907000002007E01369C1F3130423400BB1012062
:1090800000E0002010BD0022244B994202D10023B1
:10909000836111E0C1F3130201F000730BB1C260F0
:1090A0000AE001F080630BB1026105E001F00063AA
:1090B0000BB1826000E0426070470246002002EA85
:1090C00001030BB1012000E00020704770B5044699
:1090D0000D46002660692840002872D0B5F5807FD3
:1090E00069D01DDC082D42D006DC012D2DD0022DCB
:1090F00031D0042D7FD134E0102D3ED0202D42D030
:10910000402D78D145E00000030000040003000872
:1091100000000310000100080001FFF77000F030AC
:10912000B5F5004F61D009DCB5F5007F4AD0B5F543
:10913000806F4DD0B5F5006F5DD150E0B5F5803F43
:109140002DD0B5F5003F56D12FE0A0685549FFF767
:10915000B4FF064651E0E0680321FFF7AEFF064684
:109160004BE0E0680821FFF7A8FF064645E0E0680D
:109170001021FFF7A2FF06463FE020690321FFF719
:109180009CFF064639E020690821FFF796FF064656
:1091900033E020691021FFF790FF06462DE060685C
:1091A0000821FFF78AFF064627E060681021FFF7D5
:1091B00084FF064621E0A0690121FFF77EFF0646F5
:1091C0001BE01BE0A0690221FFF777FF064614E0D1
:1091D000A0690421FFF771FF06460EE00BE0A069CD
:1091E0007021FFF76AFF064607E060680421FFF779
:1091F00064FF064601E0002600BF00E0002630467E
:1092000070BDB1F5007F3AD00FDC202928D006DCF4
:1092100001291CD004291DD0082940D11DE0402976
:1092200021D0B1F5807F3AD126E0B1F5004F31D0A1
:1092300006DCB1F5806F25D0B1F5006F2FD124E0A9
:10924000B1F5803F12D0B1F5003F28D111E0154AA9
:10925000826025E00822C26022E01022C2601FE086
:10926000082202611CE01022026119E0082242601B
:1092700016E01022426013E00422426010E0042253
:1092800042600DE0042242600AE000228261042272
:10929000426005E0002282610422426000E000BFDB
:1092A00000BF70470101010010B50446FB4884422D
:1092B00009D101218803FFF7B5FA00214FF480405E
:1092C000FFF7B0FA32E0F648844209D101214804A0
:1092D000FFF7B5FA00214FF40030FFF7B0FA25E0B0
:1092E000F048844209D101218804FFF7A8FA00213F
:1092F0004FF48020FFF7A3FA18E0EB48844209D12D
:109300000121C804FFF79BFA00214FF40020FFF76A
:1093100096FA0BE0E548844208D101210805FFF7E1
:109320008EFA00214FF48010FFF789FA10BD2DE965
:10933000F04786B005460E460024A24600BFA1466F
:109340000027B08900B100BF2F462C8A4CF6FF7071
:109350000440F08804432C82AC894EF6F31004409C
:10936000B08831890843718908430443AC81AC8AD1
:109370004FF6FF400440B0890443AC8201A8FFF7D8
:10938000CAF9C648874202D1DDF810A001E0DDF835
:109390000CA0A88900F4004040B10AEBCA0000EB21
:1093A0000A1031684900B0FBF1F807E00AEBCA0087
:1093B00000EB0A1031688900B0FBF1F86420B8FBBB
:1093C000F0F004012009642101FB1089A88900F450
:1093D000004040B1322000EBC900B0FBF1F000F0DA
:1093E0000700044308E0322000EB09106421B0FBC1
:1093F000F1F000F00F0004432C8106B0BDE8F087C7
:109400004FF41651016000218180C18001810C213F
:10941000418100218181704710B502460020108AE9
:109420004FF2FF0318400B884C8823438C8823435A
:10943000CC8823431843108210BD00210180418055
:109440008180C180704721B1828942F400528281BB
:1094500004E082894DF6FF731A4082817047F0B5AF
:109460000346002400260025002040F66A17B94272
:1094700000D100BF1846C1F3421401F01F060127B6
:1094800007FA06F5012C01D10C3004E0022C01D1C1
:10949000103000E014301AB107682F43076002E073
:1094A0000768AF430760F0BD1AB1838A0B4383821C
:1094B00002E0838A8B4383827047028A4FF6F073FF
:1094C0001A400282028A0A430282704782894FF25E
:1094D000FF731A40828182890A438281704721B1D9
:1094E000828942F00202828104E082894FF6FD7394
:1094F0001A4082817047028A4FF6DF731A40028257
:10950000028A0A430282704721B1028A42F48042F1
:10951000028204E0028A4BF6FF731A40028270470F
:10952000C1F308028280704701468888C0F30800B2
:109530007047818941F0010181817047028BD2B26D
:109540000283028B42EA012202837047028B02F4FB
:109550007F420283028B0A430283704721B1828AD1
:1095600042F02002828204E0828A4FF6DF731A40C2
:109570008282704721B1828A42F01002828204E026
:10958000828A4FF6EF731A408282704721B1828A35
:1095900042F00802828204E0828A4FF6F7731A4092
:1095A0008282704721B1828942F40042828103E0C5
:1095B0008289C2F30E028281704721B1828A42F40D
:1095C0000062828204E0828A4FF2FF731A40828234
:1095D0007047828A4FF6FB731A408282828A0A435E
:1095E0008282704721B1828A42F00202828204E0C4
:1095F000828A4FF6FD731A4082827047024600202D
:10960000B1F5007F00D100BF13880B400BB10120E2
:1096100000E00020704701F40072B2F5007F00D135
:1096200000BFCA430280704770B502460024002381
:109630000025002040F66A16B14200D100BFC1F3F8
:10964000421501F01F03012606FA03F3012D02D192
:109650009689334006E0022D02D1168A334001E09C
:10966000968A33400C12012606FA04F41688344018
:1096700013B10CB1012000E0002070BD10B5002234
:10968000002340F66A14A14200D100BF0A1201244F
:109690009440A3B2DC43048010BD000000380140B8
:1096A0000044004000480040004C00400050004092
:1096B000704700001CB50C46064B7B446946009081
:1096C000204600F0E4F804460020694600F0F2F875
:1096D00020461CBDF701000010B5431C02E010F845
:1096E000011B71B18107FAD14FF0013202C88C1A07
:1096F0008C4314EAC211F9D0C01A0A0603D0C01E66
:1097000010BDC01A10BD0A0401D0801E10BD090290
:10971000FCD0401E10BD704770477047704770B551
:10972000044685690068C10601D5302600E0202680
:10973000C00707D070BDD4E9012130469047206AA8
:10974000401C20626D1EF6D570BD70B5044685695B
:109750000078C00707D170BDD4E9012120209047CF
:10976000206A401C20626D1EF6D570BD09684A054E
:1097700001D540B27047C905FCD500B270470968F1
:109780004A0501D5C0B27047C905FCD580B2704703
:1097900070B50C460546012A05D02878800600D50C
:1097A000EA69002302E0012305E05B1C934202D238
:1097B000E05C0028F9D1A869E618C01AA861286AF7
:1097C000184428622846FFF7AAFF04E0D5E90121E2
:1097D00014F8010B9047B442F8D32846FFF7B5FFC1
:1097E00070BD00002DE9F04106460024106875297F
:1097F000314616A510D0FFF7B9FF002802DA404223
:1098000013A507E031688A0701D512A502E04907D0
:1098100004D511A5012401E0FFF7B1FF00210A22C0
:1098200006F1240709E0B0FBF2FCB0FBF2F302FB07
:109830001C00303078541846491C0028F3D12346C8
:109840002A463046BDE8F04100F061BA0000000051
:109850002D0000002B0000002000000011680268AD
:10986000006A530501D508700AE0D30501D50880C8
:1098700006E0130603D5C217C1E9000200E0086044
:109880000120704701694A1C02610878704700B5E1
:109890008FB0CDE901310021059105497944CDE929
:1098A00003101146684600F029F90FB000BD000012
:1098B000E5FFFFFF0A6802F8010B0A60704700002D
:1098C0002DE9FF5F15468A460446DFF8AC80F84470
:1098D0000027D8E900103E46CDE9001010E03AF824
:1098E00016106A4602A800F0A6FC411C07D0217899
:1098F000890603D5E269391891420DD80744761CD0
:109900002078800602D5E069B84205DDAE42E6DB8C
:109910003AF816000028E2D1A069C01BA0612046D9
:10992000FFF7FDFED8E90010CDE90010002017E098
:109930003AF818106A4602A800F07DFCB0F1FF3F2B
:1099400081460BD000250DF1080B05E0D4E901217B
:109950001BF8050090476D1C4D45F7D308F1010039
:10996000B0428046E4DB206A384420622046FFF79C
:10997000ECFEBDE8FF9F0000422E00002DE9F04103
:109980008046D21D22F007020025D2E90002F52907
:1099900015A614D0011E72F1000106DA0023D0EBE7
:1099A000030063EB020211A608E0D8F800108B0751
:1099B00001D50FA602E0490701D50EA601251146E3
:1099C000002408F1240704E000F05CF930323A5535
:1099D000641C50EA0102F7D12B463246214640462C
:1099E000BDE8F04100F093B9000000002D00000038
:1099F0002B0000002000000030B4002100F12404FE
:109A000008E002F00705D208303542EA4372DB086D
:109A10006554491C52EA0305F3D10468002310A2DF
:109A2000250707D5A40600D421B1C46901230DA2DE
:109A3000641EC46130BC00F06AB910B5044621460A
:109A40001068FFF79CFE02462046BDE81040002348
:109A5000D2E7D21D22F00701D1E90023CCE70000B4
:109A60000000000030000000F0B40D460188090538
:109A700002D5214C7C4402E01F4C7C440E34002172
:109A800000F1240608E002F00F071209E75D42EA40
:109A900003721B097754491C52EA0307F3D1027879
:109AA0000023120704D5702D06D009B1022311340A
:109AB0002246F0BC00F02BB901231034F8E770B552
:109AC00004460D4621461068FFF759FE0246294616
:109AD0002046BDE870400023C6E7D21D22F00703F0
:109AE000D3E90023C0E70368126843F02003036052
:109AF0000823C3610023B7E7A42C00002DE9F05F21
:109B0000894604464FF0000ADFF874B1FB44C0F800
:109B100020A02046E1688847002874D0252806D078
:109B2000D4E901219047206A401C2062F1E7002619
:109B30005F462046E16888472028054607DB312D2F
:109B400005D2781910F8200C08B10643F1E7B007E8
:109B500001D526F00406C4F81CA00027C4F818A0FC
:109B60002A2D09D0284601F093F838B304EB870872
:109B7000303DC8F8185019E059F8041B204604EB92
:109B800087029161E1688847012F054618D1E06995
:109B9000002820DA26F020061DE0D8F8180000EB97
:109BA000800005EB40003038C8F818002046E16816
:109BB0008847054601F06CF80028EED1012F0AD045
:109BC0002E2D08D12046E16888477F1C0546022FCC
:109BD00046F02006C4DBA069002803DA404246F0C4
:109BE0000106A061F00701D026F010066C2D0BD005
:109BF000682D09D04C2D39D06A2D35D0742D35D033
:109C00007A2D33D016E038E0E1682F4620468847A9
:109C1000B842054609D16C2F26D04FF48060E16828
:109C2000064320468847054604E06C2F1AD04FF4BF
:109C3000807006430DB3A5F14100192802D82035E4
:109C400046F400664A462946204626604E46FCF702
:109C500087FA80B101280BD0F61D26F0070000F12D
:109C6000080956E74020E4E78020D8E70020D6E73F
:109C700006F104094DE7284652E7206ABDE8F09F47
:109C8000342C000030B5B0F10A024FEA900E71F1A9
:109C900000034EEA817EB0EB0E0061EB91014FEACA
:109CA000101E4EEA017E10EB0E0041EB11114FEA3F
:109CB000102E4EEA016E10EB0E0041EB11214FEA1F
:109CC000104E4EEA014E10EB0E0041EB11414018D0
:109CD00041F100014FEAD00040EA41704FEAD10162
:109CE00010EB80054FEA810444EA907444EB0104D0
:109CF0006D1944EB0404521BA3414FF0000348BF0D
:109D00000A3200D530BD401C41F1000130BD2DE9C3
:109D1000F0470D4699469246044600F12408016832
:109D2000880604D5E06921F01001216000E00120DF
:109D3000A84201DD471B00E00027A1697A1902EB68
:109D40000900081AA0612078C00602D42046FFF757
:109D5000E6FC002608E0D4E901211AF80600904745
:109D6000206A401C761C20624E45F4DB2078C00639
:109D70000AD52046FFF7D3FC06E0D4E901213020C4
:109D80009047206A401C2062381EA7F10107F4DCCE
:109D900007E0D4E9012118F805009047206A401C2B
:109DA0002062281EA5F10105F3DC2046FFF7CDFC5B
:109DB0002078000602D50220BDE8F0870120FBE7ED
:109DC00070472DE9FF4F0C461E464FF0FF378BB012
:109DD000D2E90001DDF860800A908A46C1F30A5595
:109DE00005B93D46002108464FF00000BAF1000FCA
:109DF00000F4400005DA00EB80004FF4400101EA76
:109E000050004FEA9059B9F1010F00DDB9460A98A8
:109E100050EA4A000ED044F61050A5F2FF354543F3
:109E20002F14B8F1000F1ED07542291E1EDDC9F196
:109E300000021CE0B8F1010F4FF0000001D030210A
:109E400003E0F24305E02154401CB042FBDB304606
:109E50000022002121540B99C1F80880C1E900209B
:109E60000FB0BDE8F08FBD1B6D1CDEE74A4600DA7F
:109E7000694206A800F070FA06AB93E8070003AB4E
:109E800083E8070050460A9900F026FB8DE807009A
:109E9000A0F500501F3800900398002D0ADD42F213
:109EA0001F014A460844002303A90390684600F0B6
:109EB0008FFD09E0A0F500504A461F38002303A992
:109EC0000390684600F099FD8DE807000004000C3F
:109ED00003D04FF0FF30410800E01046B8F1000F0A
:109EE00003D00022009215461EE0751E05D4FFF730
:109EF000C9FE303262556D1EF9D5B34601220843C2
:109F000002D000227F1C04E02078302801D10022FA
:109F10007F1E002A099784D01DE0112D07DAFFF774
:109F2000B1FE303262556D1C50EA0102F5D1084392
:109F300002D00098C8B10EE00021681E05E0235C45
:109F4000625C63542254401E491C8142F7DBAB46DD
:109F5000A81B401E0990002004F80B000B98099ADA
:109F6000C0F80880C0E9002B7AE711264FF00008FE
:109F700057E72DE9F04F88460446D21D22F007012D
:109F800091B0D1E90001CDE90A0100F06DFE024671
:109F90000B98C00F01D02D2007E02068810701D564
:109FA0002B2002E0202101EAC000032A099001D001
:109FB000072A05DB03464146204600F08DF90BE1F8
:109FC0002078800601D5E06900E00620B8F1650F31
:109FD000814606D0B8F1660F18D0B8F1670F70D17E
:109FE00031E00020B9F1110F009001DB112301E0F5
:109FF00009F101030AAA01A90CA8FFF7E2FEDDE9B5
:10A000000C70002609F10105834647E001204B460C
:10A0100000904FF000470AAA01A90CA8FFF7D1FE53
:10A02000DDE90DB00C995D46002610B909F101007B
:10A030000D18B9EB050003D4C0F1FF3609F1010595
:10A04000A5EB09002BE0B9F1010F01DA4FF001098E
:10A050000020B9F1110F0090484601DD112300E006
:10A0600003460AAA01A90CA8FFF7ABFEDDE90C70B4
:10A070004D4600268346207800070AD4AB4500DA17
:10A080005D4601A8012D04DD411911F8011C30299C
:10A0900007D04F4502DA17F1040F04DA0120824697
:10A0A0000FE06D1EEEE7002F02DCED1B3E4403E0E7
:10A0B000781CA84200DD7D1CB81B00F1010A4FF09E
:10A0C00000472078000703D4AA4501DB4FF0FF3A90
:10A0D0000021B7F1004F0DF143088DF8431024D053
:10A0E00002202B23002F01DA7F422D230A21021E9A
:10A0F000A0F1010000DC5FB197FBF1FC97FBF1F2EE
:10A1000001FB1C7C17460CF1300C08F801CDEEE782
:10A11000A8F1010003702188090501D5452100E05F
:10A120006521A0F1010800F8011C09980FA9A1EB15
:10A130000807FF1D00B10120411901EBEA70A16978
:10A140003844081A401EA0612078C00602D4204678
:10A15000FFF7E5FA099828B1D4E901219047206A70
:10A16000401C20622078C00622D52046FFF7D7FA8F
:10A170001EE0002E04DBB34502DD01A8805D00E097
:10A180003020D4E901219047206A401C2062761CCF
:10A19000AAF101005FEA000A0AD100F099F8C0684C
:10A1A0000168405CD4E901219047206A401C20628C
:10A1B000281EA5F10105DCDC07E0D4E9012118F82F
:10A1C000010B9047206A401C2062381EA7F101074E
:10A1D000F3DC2046FFF7B9FA032011B041E610B5D1
:10A1E000436913B1AFF3008001E0FFF7D1FA01201A
:10A1F00010BD127800F124010A7000224A70012279
:10A20000EDE711684FF0FF32E9E710B5436913B18C
:10A21000AFF3008001E0FFF753FB012010BD12886F
:10A2200000F1240182840022C2840122EDE711683A
:10A230004FF0FF32E9E770B516460C46054600F0D0
:10A240003FF8036893F80101012806D0FF2C0FD8CE
:10A25000185D68B101202C7070BDD3F8070132463B
:10A26000214603F2071303442846BDE8704018470F
:10A270004FF0FF3070BD754600F0EAF8AE460500BD
:10A280006946534620F00700854618B020B5FDF713
:10A2900013FFBDE820404FF000064FF000074FF0DD
:10A2A00000084FF0000B21F00701AC46ACE8C009F4
:10A2B000ACE8C009ACE8C009ACE8C0098D467047FD
:10A2C00010B500F005F8001D10BD00BF010A000028
:10A2D000004870476C1300202DE9F0411F460446EA
:10A2E00003260168072A01F4006004DB08B116A503
:10A2F00005E016A503E008B115A500E015A521F0BD
:10A3000010002060A069C01EA0610FB1401EA061B6
:10A310002046FFF704FA4FB1D4E9012138469047AF
:10A32000206A401C2062C01C206206E0206AFAE716
:10A33000D4E9012115F8010B9047761EF8D220468A
:10A34000FFF703FABDE8F0814E414E006E616E00EA
:10A35000494E4600696E66002DE9F0478146164673
:10A360008AB0354878440DC88DE80D0032487844ED
:10A37000801C03AC0DC884E80D0041F69B300844F6
:10A38000372190FBF1F290FBF1F5A5F1800501FB7F
:10A3900012041B3C02D56442012000E00020DFF8DB
:10A3A00098A080460027FA44AAF1BE0A0EE0E00712
:10A3B0000AD03246684607EB470101230AEB8101C8
:10A3C00000F01BFB8DE8070064107F1C002CEED111
:10A3D000194F7F44AE3F19E0E80715D007EB041092
:10A3E0000DF1180A90E80E008AE80E00C068F042ED
:10A3F00001D1981908903246012306A903A800F05C
:10A40000FCFA03AB83E807006D10641C002DE3D158
:10A410004FF0010332466946B8F1000F03A802D09D
:10A4200000F0D6FA01E000F0E8FAC9E90001C9F845
:10A4300008200AB0BDE8F0876C24000010B504467F
:10A44000AFF300802046BDE81040FBF7ECBE0000F3
:10A45000004870474C1300204FF0013C50F8042B8B
:10A4600051F8043B9A4221D1A2EB0C03934313EA27
:10A47000CC1317D150F8042B51F8043B9A4215D154
:10A48000A2EB0C03934313EACC130BD150F8042B2B
:10A4900051F8043B9A4209D1A2EB0C03934313EA0F
:10A4A000CC13DBD04FF00000704700BFD01A01BAC8
:10A4B000B1FA81F101F0180122FA01F0CB40C1F1AB
:10A4C0002001DBB2C0B2C01A2CFA01F3D11A9143B9
:10A4D00011EAC311E6D170475FEA400C08BF91F062
:10A4E000000F4FEA8C234FEAC12243EA51514FEA51
:10A4F0001C5018BF00F5F0404FEA300018BF41F083
:10A5000000415FEA6C5C00F02980BCF1FF3F08BFAE
:10A5100040F080407047130C06BF12044FF0100C3F
:10A520004FF0000C130E04BF12020CF1080C130FB5
:10A5300004BF12010CF1040C930F04BF92000CF144
:10A54000020CD30F04BF52000CF1010C11464FF066
:10A550000002A0F11F00A0EB0C00704711F0004FAB
:10A5600008BF704731F000413FF4D5AF0B0C06BF78
:10A5700009044FF0100C4FF0000C0B0E04BF090241
:10A580000CF1080C0B0F04BF09010CF1040C8B0F2C
:10A5900004BF89000CF1020CCB0F04BF49000CF181
:10A5A000010CCCF12003A0EB0C0022FA03F302FA19
:10A5B0000CF241EA030100F10100704720F07F4CEA
:10A5C00080EA030023F07F47ACEB070303F57C53DD
:10A5D00000F0004003F1FF032DE980494FEA154BDD
:10A5E00009B44FEA144325EA0B4E24EA03480FF25C
:10A5F000042606EB132749083E785FEA320203FB84
:10A600000667C7F5000707FB06F64FEA54374FEA1F
:10A61000D64606F1020607FB066CCCF1005C4FEA59
:10A620001C472CEA074C07FB06F40CFB06F504EB71
:10A6300015464FEA961634BF00204FF000404FEA0F
:10A64000D13706FB07FC4FEA1C4C0CFB0BF7D21B67
:10A6500003FB0CF761EB07010CFB0EF7B0EB0740B7
:10A6600072EB17420CFB08F734BFA2EB0742B2EBC8
:10A67000074261EB17414FEA0C444FEA910706FB92
:10A6800007FC4FEA1C4C0CFB0BF7B0EBC74072EB1E
:10A69000573203FB0CF734BFA2EBC742B2EBC74201
:10A6A00061EB57310CFB0EF7B0EBC70072EB577242
:10A6B0000CFB08F734BFA2EBC702B2EBC70261EB99
:10A6C0005771039F4FEA816141EA921104EBCC0478
:10A6D0004FEAD1374FEA826206FB07FC42EA90124A
:10A6E0004FEA80604FEA1C4C0CFB0BF7D21B03FBBC
:10A6F0000CF761EB07010CFB0EF7B0EB074072EBB8
:10A7000017420CFB08F734BFA2EB0742B2EB07423B
:10A7100061EB17414FEA8C554FEA910704EB9C24FB
:10A7200006FB07FC4FEA1C4C0CFB0BF7B0EBC740D9
:10A7300072EB573203FB0CF734BFA2EBC742B2EB0C
:10A74000C74261EB57310CFB0EF7B0EBC70072EB61
:10A7500057720CFB08F734BFA2EBC702B2EBC7027B
:10A7600061EB577115EB4C254FEA816141EA92117B
:10A770004FEA82624FEAD13742EA901206FB07FCA9
:10A7800044F100044FEA80604FEA1C4C0CFB0BF7CD
:10A79000D21B03FB0CF761EB07010CFB0EF7B0EBD0
:10A7A000074072EB17420CFB08F734BFA2EB0742DD
:10A7B000B2EB074261EB174115EB1C154FEA8131F3
:10A7C00041EA92414FEA823242EA90424FEA8030B7
:10A7D0004FEA0C7644F1000448EA03434EEA0B4882
:10A7E0004FF0000EB2EB080C71EB030724BF62467A
:10A7F00039464EEB0E0E4FF0000B00185241494106
:10A800004BEB0B0BB2EB080C71EB03077BF1000B6E
:10A8100024BF624639464EEB0E0E4FF0000B001877
:10A82000524149414BEB0B0BB2EB080C71EB0307A8
:10A830007BF1000B24BF624639464EEB0E0E51EA07
:10A84000020718BF46F0010616EB0E7655F100021E
:10A8500054F1000103D5BDE88901BDE80088BDE8D9
:10A860008901BDE80048B619524141EB0101A3F14D
:10A870000103704780807F7E7D7C7B7A7978777654
:10A8800076757473727171706F6E6E6D6C6C6B6ACD
:10A890006A6968686766666564646363626161606B
:10A8A000605F5F5E5E5D5D5C5C5B5B5A5A595958E8
:10A8B0005857575656555555545453535252525152
:10A8C000515050504F4F4F4E4E4D4D4D4C4C4C4BA8
:10A8D0004B4B4A4A4A4949494848484747474746EF
:10A8E000464645454544444444434343434242422B
:10A8F00042414141002B9C4630D477002BD01CB5FF
:10A900004FEA370703B44FF010004FF01001BAF1CF
:10A91000000F06D0BCF1000FDCBF40F0080040F093
:10A9200008014FF000000FBCBDE810400BF1010B17
:10A93000BBF1010F08BF5FEA170722BF12F1010246
:10A9400011F101014FF0004143F1000300F000401C
:10A9500043EA00007047F9D35708D0E746EA0646B5
:10A9600013F1400F4FEA16461FDD13F1200FDFBF32
:10A9700016430A46002120335B42BED0C3F12007B4
:10A9800046EA064602FA07F74FEA164646EA07067F
:10A99000C3F1200722FA03F201FA07F721FA03F1C3
:10A9A0004FF0000342EA0702A7E746EA020646EA3A
:10A9B00006464FEA164646EA0106BCBF46EA064688
:10A9C000360C4FF000034FF000024FF0000194E707
:10A9D0002DE9804C9A46934670B491E8380007C838
:10A9E00031EA400C48BF34EA430C03D5FFF7E6FDDB
:10A9F000FFF780FFF0BCBDE8008C2DE9804C9A4643
:10AA0000934670B491E8380007C810F0804F08BF33
:10AA100013F0804F03D100F005F8FFF76BFFF0BC97
:10AA2000BDE8008C20F07F4780EA030023F07F4CD4
:10AA300007EB0C03A3F57C5300F00040A3F1FE03E9
:10AA400092F0000F00F0B38095F0000F00F07780D7
:10AA50002DE901494FEA11404FEA144621EA004826
:10AA600000FB06FC24EA064708FB06F607FB08F88D
:10AA700000FB07F718EB06484CEB164C4FEA124B5D
:10AA800018EB07484FEA15464CEB174022EA0B4EED
:10AA90000BFB06FC25EA06470EFB06F607FB0EFE3F
:10AAA0000BFB07F71EEB064E4CEB164C4FF0000667
:10AAB0001EEB074E4CEB174B18EB0B0840F1000058
:10AAC00018EB0E0B58EB000840F100008F1A4FF006
:10AAD00000013CBFC943661B14BFB5EB040C002149
:10AAE0003CBFC943F61B4FEA17444EEA8E0E27EAD5
:10AAF00004454FEA1C4704FB07622CEA074C05FBA0
:10AB000007F70CFB05F604FB0CFC16EB074642EBC3
:10AB1000174216EB0C4642EB1C421BEB060658EBA9
:10AB20000202414146EA9E0601D5BDE80189B619F7
:10AB3000524141EB0101A3F10103BDE801894FEA54
:10AB400014454FEA114724EA054621EA074C05FB64
:10AB500007F406FB07F70CFB06F105FB0CFC11EBF9
:10AB6000074144EB17444FEA124711EB0C4144EB09
:10AB70001C4422EA074C05FB07F206FB07F70CFB17
:10AB800006F605FB0CFC16EB074642EB174216EBEC
:10AB90000C4642EB1C456A1854F1000148BF70474F
:10ABA000B619524141EB0101A3F10103704795F041
:10ABB000000F37D04FEA11424FEA144721EA02460C
:10ABC00024EA074C02FB07F106FB07F70CFB06F42F
:10ABD00002FB0CFC14EB074441EB17414FEA15470D
:10ABE00014EB0C4441EB1C4125EA074C02FB07F532
:10ABF00006FB07F70CFB06F602FB0CFC16EB074600
:10AC000045EB174516EB0C4645EB1C42121951F16A
:10AC1000000148BF7047B619524141EB0101A3F151
:10AC2000010370474FEA14454FEA114724EA0546ED
:10AC300021EA074C05FB07F106FB07F70CFB06F2C0
:10AC40004FF0000605FB0CFC12EB074241EB1741ED
:10AC500012EB0C4251EB1C4148BF7047921841EB7C
:10AC60000101A3F101037047490050EAC12018BF58
:10AC700004204A0D18BF40F0010040F2FF72B2EB11
:10AC8000515F08BF40F00200012808BF052070474F
:10AC900030380A2801D20120704700207047000098
:10ACA00010B500290AD00878002807D00548784454
:10ACB000FFF7D2FB002801D0002010BD02487844E5
:10ACC00010BD00005E1B0000561B000010B50029DF
:10ACD0000AD00878002807D005487844FFF7BCFB65
:10ACE000002801D0002010BD0248784410BD0000AB
:10ACF0004E1B0000461B0000FFF73BB900000000A0
:10AD00000000000000000000000000000010101013
:10AD100010101010101000001010000000006C6CDB
:10AD2000242400000000010000000000002424246E
:10AD300024FE48484848FC909090900000103C54F5
:10AD40009290503814121292547810000000225C35
:10AD500094A8481010242A5254880000000030485B
:10AD60004850206E54948C888A7400000000303063
:10AD70001010000000000000000000000004081097
:10AD800010202020202020101008040000804020E7
:10AD90002010101010101020204080000000000033
:10ADA000105438103854100000000000000000104B
:10ADB000101010FE10101010000000000000000025
:10ADC0000000000000000000101020000000000043
:10ADD000000000FE00000000000000000000000075
:10ADE000000000000000000010100000000004043B
:10ADF00008081010202040408080000000003844E7
:10AE00008282828282828282443800000000107036
:10AE10001010101010101010107C000000003844AA
:10AE2000828204081020408284FC00000000384424
:10AE30008202043804020282443800000000040C3C
:10AE4000141424244444FE04040E00000000FC807A
:10AE50008080B8C4820202828478000000003C42F4
:10AE60008280B8C4828282824438000000007E4220
:10AE70008204040808081010101000000000384474
:10AE80008282443844828282443800000000384480
:10AE900082828282463A028244380000000000002A
:10AEA0001010000000001010000000000000000062
:10AEB0001010000000000010102000000000000032
:10AEC0000618608060180600000000000000000006
:10AED0000000FE0000FE0000000000000000000076
:10AEE000C0300C020C30C00000000000003844826A
:10AEF00082020408101010001010000000003844F6
:10AF0000829AAAAAAAAAAA9680423C00000010101F
:10AF10001028282844447C4444EE00000000FC42F1
:10AF20004242427C4242424242FC000000003C4419
:10AF30008280808080808282443800000000F84453
:10AF4000424242424242424244F800000000FC4475
:10AF50004240447C4440404244FC00000000FC4429
:10AF60004240447C4440404040F000000000344CEB
:10AF7000828080808E8484844C3400000000EE4403
:10AF80004444447C4444444444EE000000007C10AB
:10AF90001010101010101010107C000000003E085F
:10AFA0000808080808080888887000000000EE44B7
:10AFB000484850605048484444EE00000000E040DB
:10AFC000404040404040404244FC00000000C64435
:10AFD0006C6C6C545454444444EE00000000CE4465
:10AFE00064646454544C4C4C44E400000000384405
:10AFF0008282828282828282443800000000F84489
:10B00000424242447840404040E000000000384462
:10B0100082828282828282BA443C02000000F0482E
:10B02000444444487048444444E6000000003C4422
:10B03000828040300C0202824478000000007C5480
:10B040009210101010101010103800000000EE4484
:10B050004444444444444444443800000000EE4422
:10B060004444442828282810101000000000EE4412
:10B070005454545454542828282800000000EE4406
:10B08000442828101028284444EE00000000EE4414
:10B0900044282828101010101038000000007E44AA
:10B0A000840808102020408284FC0000001C10103E
:10B0B000101010101010101010101C000000EE44A2
:10B0C0005454FE54545428282828000000701010AE
:10B0D0001010101010101010101070000030488464
:10B0E0000000000000000000000000000000000060
:10B0F00000000000000000000000FE0000402000F2
:10B10000000000000000000000000000000000003F
:10B1100000007884047C84848C7600000000C040A9
:10B12000404058644242424264580000000000001F
:10B1300000003844808080804438000000000C0407
:10B140000404344C848484844C36000000000000E5
:10B150000000788484FC808084780000000018243B
:10B160002020F82020202020207000000000000077
:10B1700000003A444478807C82827C000000C04019
:10B18000404058644444444444EE00000000101021
:10B1900000003010101010101038000000001010C7
:10B1A0000000301010101010109060000000C0401F
:10B1B00040405C485060504844EE000000003010B1
:10B1C00010101011101010101039000000000000B5
:10B1D0000000ACD29292929292D600000000000041
:10B1E000000058E44444444444EE000000000000E1
:10B1F000000038448282828244380000000000004F
:10B200000000D864424242645840E0000000000060
:10B210000000364C8484844C34040E00000000008E
:10B2200000006C3020202020207000000000000072
:10B2300000007888846018844478000000000020B2
:10B240002020F820202020202418000000000000EA
:10B250000000C64242424242463A0000000000005E
:10B260000000EE44442828281010000000000000D0
:10B270000000EE4444545428282800000000000038
:10B280000000EE442810102844EE000000000000EA
:10B290000000EE444428281010A0C0000000000068
:10B2A00000007E448810204284FC0000000C101036
:10B2B000101010601010101010100C000010101062
:10B2C00010101010101010101010100000C02020CE
:10B2D00020202018202020202020C0000000000076
:10B2E000000000728C000000000000000000000060
:10B2F000000000000000000000000007E00FF01C4C
:10B3000038181C381C301C300C300C300E700E708D
:10B310000E700E700E300C300C301C301C381C18A7
:10B32000380FF007E00000000000000000000000FF
:10B33000000000000000000000000000C000C0018C
:10B34000C003C03FC03FC001C001C001C001C00177
:10B35000C001C001C001C001C001C001C001C001E5
:10B36000C001C001C000000000000000000000009B
:10B37000000000000000000000000007E01FF03C9B
:10B3800038381C301C301C301C001C001C003800DD
:10B390007000E003C007800F001C00380030003050
:10B3A000007FFC7FFC0000000000000000000000A7
:10B3B000000000000000000000000007C01FF03C7B
:10B3C000383818301C301C001C0018003803E0030B
:10B3D000F00078001C001C000C700C701C301C3835
:10B3E000381FF80FE000000000000000000000001F
:10B3F00000000000000000000000000030007000AD
:10B40000F000F001B00330033006300C300C30187F
:10B41000303030303060307FFC7FFC003000300056
:10B42000300030003000000000000000000000008C
:10B4300000000000000000000000001FF81FF81FBF
:10B44000F8180018001800380033C037F03C78387E
:10B450003C001C001C001C001C001C701C301C3814
:10B46000381FF00FE00000000000000000000000A6
:10B47000000000000000000000000003E00FF81EC4
:10B48000381C1C381C38003000300073F077F87C12
:10B490003C781C700C700E700E300C380C381C1C74
:10B4A000181FF807E0000000000000000000000086
:10B4B00000000000000000000000007FFE7FFE7F13
:10B4C000FE000C001800300070006000C001C001D8
:10B4D000800380038003000700070006000E000EB3
:10B4E000000E000E00000000000000000000000040
:10B4F000000000000000000000000007E00FF01C4A
:10B5000038181C381C381C381C18181E3807E00F57
:10B51000F01C38381C300C300C300C300C381C3817
:10B520001C1FF80FE00000000000000000000000F9
:10B53000000000000000000000000007E00FF01C09
:10B5400038381C381C300C700C700E700E381E38D9
:10B550001E1E7E1FEE078E000C001C381C381C3887
:10B56000381FF00FE00000000000000000000000A5
:10B5700000000000000000000000000000000000CB
:10B580000000000000000000000180018001800137
:10B5900080018001807FFE7FFE01800180018001AB
:10B5A0008001800180000000000000000000000019
:10B5B000000000000000000000000000000000008B
:10B5C000000000000000000000000000000000007B
:10B5D00000000000007FFE7FFE0000000000000071
:10B5E000000000000000000000000000000000005B
:10B5F00000000000000000000000003FFC3FFC389D
:10B60000003800380038003800380038003FFC3F70
:10B61000FC3800380038003800380038003800386E
:10B62000003FFC3FFC0000000000000000000000A4
:10B6300000001FE000003FF000003FF000001FE0AE
:10B64000000180060003C00F0003C00F0003C00FFD
:10B650000003C00F0003C00F0003C00F0003C00FA2
:10B660000003C00F00030003000000000000000002
:10B6700000000000000300030003C00F0003C00F20
:10B680000003C00F0003C00F0003C00F0003C00F72
:10B690000003C00F0003C00F0001800600001FE080
:10B6A00000003FF000003FF000001FE0000000003D
:10B6B0000000000000000080000001800000038006
:10B6C000000007800000078000000780000007805E
:10B6D000000007800000078000000780000007804E
:10B6E0000000078000000180000000000000000052
:10B6F00000000000000001800000078000000780BB
:10B70000000007800000078000000780000007801D
:10B710000000078000000780000007800000038011
:10B720000000018000000080000000000000000018
:10B7300000001FE000003FF00000FFF00001FFE00C
:10B74000000000060000000F0000000F0000000FC6
:10B750000000000F0000000F0000000F0000000FAD
:10B760000000000F00001FE300007FF800007FF8DA
:10B7700000001FE0000300000003C0000003C00041
:10B780000003C0000003C0000003C0000003C000AD
:10B790000003C0000003C0000001800000001FF093
:10B7A00000003FF800003FFC00001FFE000000000A
:10B7B0000003FF800001FFC00000FFC000007F8089
:10B7C000000000180000003C0000003C0000003CAD
:10B7D0000000003C0000003C0000003C0000003C79
:10B7E0000000003C00007F8C0001FFE00001FFF042
:10B7F00000007F800000000C0000003C0000003CC6
:10B800000000003C0000003C0000003C0000003C48
:10B810000000003C0000003C0000001800007F8099
:10B820000000FFC00001FFC00003FF800000000017
:10B830000000000000020001000300030003800775
:10B840000003C00F0003C00F0003C00F0003C00FB0
:10B850000003C00F0003C00F0003C00F0003C00FA0
:10B860000003C00F00031FE300007FF800007FFC0F
:10B8700000001FE0000000030000000F0000000FA8
:10B880000000000F0000000F0000000F0000000F7C
:10B890000000000F0000000F0000000F0000000774
:10B8A0000000000300000001000000000000000094
:10B8B00000001FFC00003FF800003FF000001FE008
:10B8C000000180000003C0000003C0000003C000AE
:10B8D0000003C0000003C0000003C0000003C0005C
:10B8E0000003C00000031FE000007FF800007FF8A5
:10B8F00000001FE0000000030000000F0000000F28
:10B900000000000F0000000F0000000F0000000FFB
:10B910000000000F0000000F0000000600003FE0E4
:10B9200000007FF00000FFF00001FFE000000000D9
:10B9300000001FFC00003FF800003FF000001FE087
:10B94000000180000003C0000003C0000003C0002D
:10B950000003C0000003C0000003C0000003C000DB
:10B960000003C00000031FE000007FF800007FFC20
:10B9700000001FE0000300030003C00F0003C00F1E
:10B980000003C00F0003C00F0003C00F0003C00F6F
:10B990000003C00F0003C00F0001800600001FE07D
:10B9A00000003FF000003FF000001FE0000000003A
:10B9B0000007FFE00003FFC00001FF880000FF1840
:10B9C00000000038000000780000007800000078D7
:10B9D0000000007800000078000000780000007887
:10B9E00000000078000000180000000000000000C7
:10B9F000000000000000001800000078000000783F
:10BA00000000007800000078000000780000007856
:10BA10000000007800000078000000780000003886
:10BA200000000018000000080000000000000000F6
:10BA300000001FE000003FF000003FF000001FE0AA
:10BA4000000180060003C00F0003C00F0003C00FF9
:10BA50000003C00F0003C00F0003C00F0003C00F9E
:10BA60000003C00F00031FE300007FF800007FFC0D
:10BA700000001FE0000300030003C00F0003C00F1D
:10BA80000003C00F0003C00F0003C00F0003C00F6E
:10BA90000003C00F0003C00F0001800600001FE07C
:10BAA00000003FF000003FF000001FE00000000039
:10BAB00000001FE000003FF000003FF000001FE02A
:10BAC000000180060003C00F0003C00F0003C00F79
:10BAD0000003C00F0003C00F0003C00F0003C00F1E
