:020000040800F2
:10600000481E0020617000084162000843620008D9
:10601000476200084B6200084F6200080000000061
:1060200000000000000000000000000053620008B3
:10603000556200080000000057620008596200081D
:106040007B7000087B7000087B7000087B70000884
:106050007B7000087B7000087B7000087B70000874
:106060007B7000087B7000087B7000087B70000864
:106070007B7000087B7000087B7000087B70000854
:106080007B7000087B7000087B7000087B70000844
:106090007B7000087B7000087B7000087B70000834
:1060A0007B7000087B7000087B7000087B70000824
:1060B0007B7000087B7000087B7000087B70000814
:1060C0007B7000087B7000087B7000087B70000804
:1060D0007B700008276C0008496F00087B7000087F
:1060E0007B7000087B7000087B70000800F002F8ED
:1060F00000F090F80AA090E8000C82448344AAF1D2
:106100000107DA4501D100F085F8AFF2090EBAE8CF
:106110000F0013F0010F18BFFB1A43F001031847DB
:106120001455000034550000103A24BF78C878C1D7
:10613000FAD8520724BF30C830C144BF04680C608D
:10614000704700000023002400250026103A28BFD5
:1061500078C1FBD8520728BF30C148BF0B607047D9
:106160006E2902F03985702902F07983662905F0DD
:106170003381652905F03081672905F02D8161297A
:10618000AFF3008003681B0A28BF41F08001692932
:1061900002F0EA82642902F0E782752902F0E482C3
:1061A0006F2903F02E80782902F04583E92902F057
:1061B000C987E42902F0C687F52902F0C387EF29D1
:1061C00003F02B80F82902F044830368DB0928BF21
:1061D00041F08001632902F04A87732902F04F875A
:1061E000E32903F0BD80F32903F0C280002070474B
:1061F0001FB503F01DF804000020002104F04CFB43
:10620000401C60600020002104F030FBE0601FBDF6
:1062100010B510BD03F046F91146FFF7E9FF00F095
:1062200008F803F06DF903B4FFF7F2FF03BC00F0C8
:106230009FFC10B500F0F4FE00F0D0FB002010BD74
:10624000704700BFFEE700BFFEE700BFFEE700BFEC
:10625000FEE7704770477047704700000CB500209C
:10626000019000906C48006840F480306A490860F2
:1062700000BF6948006800F4003000900198401C9D
:106280000190009818B90198B0F5A06FF1D162485B
:10629000006800F4003010B10120009001E00020FF
:1062A00000900098012843D15C48006840F010003D
:1062B0005A4908600846006820F003000860084654
:1062C000006840F002000860534840685249486046
:1062D0000846406848600846406840F4806048606E
:1062E0000846406820F47C1048600846406840F446
:1062F000E81048600846006840F08070086000BF01
:106300004548006800F000700028F9D04248406815
:1063100020F00300404948600846406840F0020011
:10632000486000BF3C48406800F00C000828F9D1E4
:106330000CBD10B5FFF792FF10BD10B536480068D0
:1063400040F001003449086008464068344908407C
:106350003149486008460068324908402E490860C3
:106360000846006820F4802008600846406820F451
:10637000FE0048604FF41F008860FFF7DAFF4FF01F
:1063800000602949086010BD10B5002100200022DE
:10639000214B5B6803F00C0121B1042906D00829C8
:1063A00028D107E0214B224C236027E01F4B204CD3
:1063B000236023E0184B5B6803F47010164B5B6896
:1063C00003F48032022303EB904022B9194B43437C
:1063D000174C23600DE0104B5B6803F4003323B1CE
:1063E000144B4343124C236003E0104B4343104CC7
:1063F000236003E00D4B0E4C236000BF00BF064B33
:106400005B68C3F303130C4CE15C094B1B68CB4086
:10641000074C236010BD0000001002400020024025
:106420000000FFF8FFFFF6FE08ED00E000127A0022
:106430000010002000093D000410002008B50121D3
:10644000042001F0B7F92020ADF8000010208DF8ED
:10645000030003208DF802006946044800F0EEFEB8
:106460002021024800F097FF08BD0000000801400D
:1064700008B51748006858B90A2000F04CFB1448CA
:10648000006828B91348807840F0010011498870ED
:1064900004208DF803004FF4E040ADF80000694699
:1064A0000D4800F0CBFE08BD08B50121082001F021
:1064B00081F948208DF803004FF48050ADF80000BA
:1064C0006946054800F0BAFEFFF7D2FF08BD00009C
:1064D0003081214208160020000C014010B54FF415
:1064E000E13000F0DBFC10BD70B503460C464FF602
:1064F000FF70002112E05A5C504000250AE000F0D5
:10650000010626B140104AF20106704000E040103A
:106510006E1CF5B2082DF2DB4E1CF1B2A142EADB93
:1065200070BD2DE9F04790B082461C2109A802F009
:10653000B2FA4FF0000900244FF4FA71FE4802F05D
:1065400088FA4FF40771FD4802F083FA0120FC49F4
:106550000870FC48008800124870FA48007888707B
:1065600000BF0821F64800F053FC0028F9D1B7E13C
:1065700000F07CFC00287DD00021F3488173C07BB3
:106580000128F4D11C2109A802F085FAEE48417CCB
:10659000007C41EA0020B0F5837F6CD007DC60B15D
:1065A000A0F20110002867D001283DD13CE1A0F203
:1065B0002110D0B30128F8D17BE00120E3494870D5
:1065C000E148807CC0108870DF48807C4007C10EA5
:1065D000DD48C07C41EAA011DC48C170DA48C07CCB
:1065E000C0F34401D9480171D748C07CC007C10E2F
:1065F000D548007D41EA1011D4484171D248007D50
:106600000007810ED048407D41EAA011CF4881713A
:10661000CD48407D00F03F01CC48C171CA48807D23
:1066200000F00301C94801723DE1FFE7C648807DE3
:1066300000F00F01C5488173C348007900F00701DD
:10664000C2488174C048807C0106BF48C07C41EAD2
:106650000041BD48007D41EA0021BB48407D014327
:10666000BA4841610146887B04F057FB07463A4629
:106670000B4602E01DE15AE097E00020B44903F028
:10668000E3FB05460E46B149486904F02FFB2A4654
:106690003346CDE9040104F0D1F9CDE90601CDE995
:1066A0000001AA48837CABA2ACA109A801F0F6FFC7
:1066B000F9E0A548807D00F00F01A4488173A2484D
:1066C000007900F00701A14881749F48807C010691
:1066D0009D48C07C41EA00419B48007D41EA002181
:1066E0009948407D0143994841610146887B04F007
:1066F00014FB02460B46CDE904010020944903F047
:10670000A3FB05460E469149486904F0EFFA2A4674
:106710003346CDE9060104F091F9CDE900018B483B
:10672000837C92A28DA109A801F0B8FFBBE0864846
:10673000807D00F00F01854881738348007900F067
:106740000701824881748048807C01067E48C07CB5
:1067500041EA00417C48007D41EA00217A48407DC1
:1067600001437A4841610146887B04F0D6FA074626
:106770003A460B460020764903F066FBCDE904015A
:106780007249486904F0B2FA0546DDE9042304F0D1
:1067900055F9CDE90601CDE900016C48837C75A26D
:1067A0006EA109A801F07AFF7DE06748807D00F0C6
:1067B0000F01664881736448007900F0070163485F
:1067C00081746148807C01065F48C07C41EA0041D9
:1067D0005D48007D41EA00215B48407D01435B4804
:1067E00041610146887B04F098FA02460B46CDE9E8
:1067F00004010020564903F027FB07468846534909
:10680000486904F073FA05463A46434604F016F91F
:10681000CDE90601CDE900014C48837C57A24FA188
:1068200009A801F03BFF3EE04748807D00F00F01E2
:10683000464881734448007900F007014348817459
:106840004148807C01064048C07C41EA00413E4806
:10685000007D41EA00213C48407D01433B484161C5
:106860000146887B04F059FA02460B46CDE9040143
:106870000020374903F0E8FA05460E4633494869D7
:1068800004F034FA07462A46334604F0D7F8CDE937
:106890000601CDE900012D48837C3AA22FA109A869
:1068A00001F0FCFE00BF00BF09A9234802F0C5F8B3
:1068B00016E0022000F02FF9322094FBF0F100FBEB
:1068C000114038B93148006808B9012000E00020C3
:1068D0002E490860BAEB440F00DA02E0601C84B273
:1068E00046E600BF144802F089F81FFA80F9B9F1B2
:1068F000000F70DD2321A9F101000F4A115409F0A6
:10690000FF011046FFF7F0FD214908800F4840784D
:1069100001284FD100200D4948701D480288064BC0
:106920000846C0798979CDE90732CDE905100748D5
:106930004279007905492DE0681000205C120020A2
:10694000441000201610002008160020C417002054
:1069500000002440534C54500000000025732530A3
:10696000316425302E32662600000000534C484D1D
:10697000000000004C54495400000000455654509B
:10698000000000004556484D0000000094012142DF
:1069900036100020C978254B9B78CDE90131CDE92F
:1069A00003022348234B244A24A100902E4801F0DF
:1069B00075FE0CE02D4800882D491D4A1D4BCDE980
:1069C000002102901C4A2BA1274801F067FE2649AE
:1069D0002DA000F0F6FA10B0BDE8F08700250024E5
:1069E00023E02B480088844209D12A4909884FF4C2
:1069F0007A72514388B2FFF794FD002415E0052018
:106A000000F089F8C82095FBF0F100FB115050B957
:106A1000601CC4B22048006808B9012000E00020D2
:106A20001D4908600025681CC5B2DAE7C4170020BC
:106A30002410002021100020181000205B25732551
:106A40007323257323323025303264253032642598
:106A5000303264253032642530326425303264406F
:106A60002573253034585D005C120020361000205C
:106A7000681000205B25732573232573402573253B
:106A80003034585D0000000025730D0A000000003E
:106A900014100020161000209401214210B56FF050
:106AA000040000F04CFB2E4800682E49B0FBF1F0CA
:106AB0002D4908700846007800EB4001C1EBC0107A
:106AC0004FF6FF7101EAC0002849088010BD014659
:106AD000254A12784A434FF0E0235A6100229A6116
:106AE0001A46126942F001021A6100BF4FF0E0221B
:106AF000106900F001021AB100F48032002AF5D0CA
:106B00004FF0E022126922F001024FF0E0231A61F7
:106B100000229A6170470146144A12884A434FF096
:106B2000E0235A6100229A611A46126942F001027A
:106B30001A6100BF4FF0E022106900F001021AB1A3
:106B400000F48032002AF5D04FF0E022126922F0E2
:106B500001024FF0E0231A6100229A6170470000A1
:106B60000010002000127A00381000203A10002097
:106B7000014600BF704700BF664A128802F040021B
:106B8000002AF9D0C2B2634B1B1D1A80704710B5A2
:106B900086B00446012144F2040000F00BFE4FF4DD
:106BA0000070ADF8140003208DF8160018208DF841
:106BB000170005A9584800F041FB4FF48060ADF87C
:106BC000140004208DF8170005A9534800F036FB87
:106BD00025208DF8000003208DF801008DF80200BB
:106BE00001208DF80300684600F05FFA0194002050
:106BF000ADF80800ADF80A00ADF80C00ADF81000D3
:106C00000C20ADF80E0001A9424801F072FB0122F0
:106C100040F225513F4801F004FC01213D4801F0BC
:106C2000F4FB06B010BD10B540F22551394801F013
:106C3000DDFC10B3374801F059FCC4B23748008876
:106C400000F40040C8B93548008800F4804060B1C5
:106C50000A2C03D000203149088020E02F4800880A
:106C600040F400402D49088019E00D2C06D12B4836
:106C7000008840F480402949088010E027480088B7
:106C8000C0F30D0026490C5424480088401C2349B9
:106C9000088008460088C72801DD0020088010BD54
:106CA0000FB438B505A800901E48009A049901F069
:106CB000E3FC002000901B4801F0A0FE85B20024F8
:106CC0000DE000BF1348008800F040000028F9D014
:106CD0001448005D0F49091D0880601C84B2AC4255
:106CE000EFDB00BF0B48008800F040000028F9D01F
:106CF0000D200849091D088000BF0648008800F0E3
:106D000040000028F9D00A200249091D088038BC3B
:106D10005DF814FB003801400008014040100020DD
:106D200078140020401500202DE9F04188B0044679
:106D30000D4616461F46DDF838800121042000F07C
:106D400039FD0121480600F042FD4FF48050ADF8B6
:106D50001C0003208DF81E0018208DF81F0007A9C5
:106D60004B4800F06BFA4FF40060ADF81C0048206F
:106D70008DF81F0007A9464800F060FA00208DF842
:106D800016008DF817008DF8180001208DF81900F5
:106D900000208DF81A008DF81B008DF812808DF8F8
:106DA00013408DF814608DF81550ADF8107004A9DB
:106DB000384800F07CFD00208DF80A008DF80B00AB
:106DC00001208DF80C000020ADF80000ADF80200A5
:106DD000ADF80400ADF80600ADF8080001208DF80C
:106DE0000D00684600F0EDFD00212B4880F82010D2
:106DF00080F82110002028490880084600888978FA
:106E000040EAC10024498861002008B0BDE8F08153
:106E10002DE9F04107460D4600241F4880F8225016
:106E200000BF05E0395D1C4823300155601C84B269
:106E3000AC42F7DB18491831164800F0B1FE06469F
:106E4000002401E0601C84B23146124800F040FF8B
:106E500018B940F6FF708442F4DB40F6FF708442BC
:106E600002DB0120BDE8F0810020FBE710B5002126
:106E7000084801F00DF808B9002010BD064A121D9F
:106E80000021044800F081FF0348807BF5E7000003
:106E900000080140006400400816002010B586B0CC
:106EA00004460121042000F085FC0121480400F083
:106EB0008EFC0420ADF8140003208DF81600182075
:106EC0008DF8170005A9514800F0B8F90820ADF871
:106ED000140004208DF8170005A94C4800F0AEF905
:106EE0000121480400F08DFC00214FF4003000F037
:106EF00088FC01940020ADF80800ADF80A00ADF858
:106F00000C00ADF810000C20ADF80E0001A94048AF
:106F100001F0EFF926208DF8000003208DF8010024
:106F20008DF8020001208DF80300684600F0BDF8DE
:106F3000012240F22551364801F073FA012134480C
:106F400001F063FA06B010BD10B540F2255130488B
:106F500001F04CFB10B32E4801F0C8FAC4B22D4822
:106F6000008800F40040C8B92A48008800F4804036
:106F700060B10A2C03D000202649088020E0254873
:106F8000008840F400402349088019E00D2C06D108
:106F90002048008840F480401E49088010E01D48C9
:106FA0000088C0F30D001C490C541A480088401C8E
:106FB0001849088008460088C72801DD002008809D
:106FC00010BD0FB438B505A800901448009A049974
:106FD00001F052FB00200090104801F00FFD85B237
:106FE00000240DE000BF0A48008800F0400000289F
:106FF000F9D00A48005D0649091D0880601C84B26A
:10700000AC42EFDB38BC5DF814FB00000008014027
:10701000004400404210002034160020FC160020DE
:1070200008B50D480D490860FFF738FD4FF4A06022
:1070300000F036F84FF4E130FFF7A9FDFFF7FEF955
:10704000FFF732FA00200123082207210090FFF702
:107050006BFEFFF743FA08BD0060000808ED00E092
:107060000948804709480047FEE7FEE7FEE7FEE7DC
:10707000FEE7FEE7FEE7FEE7FEE7FEE70448054918
:10708000054A064B704700003B630008ED600008AE
:1070900048180020481E0020481A0020481A0020E6
:1070A00031490143314A1160704770B50021002316
:1070B0000F22C47804B32D4C246804F4E064C4F5B2
:1070C000E064210AC1F10403CA40447804FA03F1E0
:1070D0008478144021430901254C0678A155047891
:1070E00004F01F050124AC4005786D11AD0005F1D9
:1070F000E025C5F8004109E0047804F01F050124EB
:10710000AC401C4D0678761145F8264070BD1A4AF1
:107110000A400243154B1B1F1A60704739B1134ACE
:10712000121D12680243114B1B1D1A6006E00F4A24
:10713000121D126882430D4B1B1D1A6070470428F4
:1071400008D14FF0E021096941F004014FF0E0223D
:10715000116107E04FF0E021096921F004014FF0CF
:10716000E0221161704700000000FA050CED00E01C
:1071700000E400E080E100E080FFFF1F10B504465E
:10718000CC48844208D10121042000F02DFB0021CD
:10719000042000F029FB46E0C748844208D10121C1
:1071A000082000F021FB0021082000F01DFB3AE040
:1071B000C248844208D10121102000F015FB0021B3
:1071C000102000F011FB2EE0BD48844208D10121BF
:1071D000202000F009FB0021202000F005FB22E028
:1071E000B848844208D10121402000F0FDFA002176
:1071F000402000F0F9FA16E0B348844208D101219A
:10720000802000F0F1FA0021802000F0EDFA0AE081
:10721000AE48844207D10121801500F0E5FA002133
:10722000A01500F0E1FA10BD10B50121084600F0EC
:10723000DBFA0021012000F0D7FA10BD2DE9F04162
:10724000024600250026002000230024002791F894
:1072500003C00CF00F0591F803C00CF0100CBCF14A
:10726000000F03D091F802C04CEA050591F800C068
:10727000BCF1000F31D0146800202BE04FF0010C5E
:107280000CFA00F3B1F800C00CEA03069E4220D1CC
:1072900083004FF00F0C0CFA03F7BC4305FA03FC14
:1072A0004CEA040491F803C0BCF1280F06D14FF05A
:1072B000010C0CFA00FCC2F814C00AE091F803C0FB
:1072C000BCF1480F05D14FF0010C0CFA00FCC2F8DC
:1072D00010C0401C0828D1D31460B1F800C0BCF124
:1072E000FF0F34DD546800202EE000F1080C4FF051
:1072F000010808FA0CF3B1F800C00CEA03069E423C
:1073000021D183004FF00F0C0CFA03F7BC4305FAB0
:1073100003FC4CEA040491F803C0BCF1280F05D12A
:1073200000F1080C08FA0CF8C2F8148091F803C0B8
:10733000BCF1480F07D100F1080C4FF0010808FA22
:107340000CF8C2F81080401C0828CED35460BDE869
:10735000F0814FF6FF710180022181700421C1701C
:1073600070470246002093680B400BB1012000E0FB
:10737000002070470146886880B2704702460020AE
:10738000D3680B400BB1012000E00020704701469C
:10739000C86880B2704701617047416170470AB1A7
:1073A000016100E041617047C16070474FF4803275
:1073B0000A43826181618261826982697047024603
:1073C0000020434B18684FF68073184040EA0210C3
:1073D00008433F4B186070473E49C8617047F0B59D
:1073E0000A46002300240021002500F00046B6F1E3
:1073F000004F02D1364EF16901E0354E7168C0F39D
:10740000034583B200F44016B6F5401F08D121F0C1
:1074100070612F4E766826F070662D4F7E6012E008
:1074200000F48016B6F5801F06D1032606FA05F48F
:10743000A14341F0706106E0460D360103FA06F6FD
:10744000B14341F0706122B1460D360103FA06F6F0
:10745000314300F00046B6F1004F02D11C4EF161FD
:1074600001E01B4E7160F0BD30B500228B071C0F90
:107470000F2303FA04F2164B08338C1053F8243010
:107480009343134C08348D1044F8253023468C1058
:1074900053F824308C07240F00FA04F423430C4CD7
:1074A00008348D1044F8253030BD0A49DC310860BD
:1074B0007047000000080140000C0140001001402E
:1074C0000014014000180140001C01400020014050
:1074D0000000014000002042DF48006840F0010049
:1074E000DD49086008464068DC490840DA494860E0
:1074F00008460068DA490840D7490860084600682D
:1075000020F4802008600846406820F4FE004860AF
:107510004FF41F0088607047CF49096821F480311B
:10752000CD4A11601146096821F480211160B0F53F
:10753000803F03D0B0F5802F0ED106E0C649096820
:1075400041F48031C44A116007E0C349096841F43D
:10755000A021C14A116000E000BF00BF704710B514
:1075600001460022002300204A11012A02D1BA4C10
:10757000236806E0022A02D1B74C236A01E0B64C28
:10758000636A01F01F02012494401C400CB10120E9
:1075900000E0002010BD38B5002000900024002538
:1075A00000BF3120FFF7DBFF05460098401C00902C
:1075B0000098B0F5A06F01D0002DF2D03120FFF778
:1075C000CEFF08B1012400E00024204638BD01466A
:1075D0000020A14A106820F0F80040EAC1001060C5
:1075E0007047A04908607047024600209A4B5868CF
:1075F00020F47C1042EA01031843974B586070470F
:1076000098490866704701460020934A506820F068
:1076100003000843506070478F48406800F00C003A
:107620007047014600208C4A506820F0F000084363
:107630005060704701460020874A506820F4E0609F
:1076400008435060704701460020834A506820F488
:10765000605040EAC1005060704729B17E4A527ABA
:1076600002437D4B5A7204E07B4A527A82437A4B42
:107670005A7270477B49D831086070470146002034
:10768000754A506820F4404008435060704700211C
:10769000714A20321170704A82F82010012802D0FD
:1076A00004280AD104E001216B4A2032117005E060
:1076B0000521694A2032117000E000BF00BF704709
:1076C0006949086070476449096A0143624A116266
:1076D0007047654944390860704730B50021002281
:1076E000002400235C4D6D6805F00C0121B10429D4
:1076F00005D0082923D105E05C4D056022E05B4DF3
:1077000005601FE0544D6D6805F47012524D6D68B0
:1077100005F48034022505EB92421CB9544D5543C3
:1077200005600BE04C4D6D6805F400351DB1504D02
:107730005543056002E04D4D5543056002E04B4D59
:10774000056000BF00BF444D6D6805F0F0010909F8
:10775000484D6B5C0568DD4045603F4D6D6805F444
:10776000E061090A434D6B5C4568DD4085603A4D38
:107770006D6805F46051C90A3E4D6B5C4568DD409B
:10778000C560354D6D6805F44041890B3A4D6B5C21
:10779000C568B5FBF3F5056130BD29B12E4A5269C4
:1077A00002432D4B5A6104E02B4A526982432A4B13
:1077B0005A61704729B1284A92690243264B9A615F
:1077C00004E0254A92698243234B9A61704729B1AC
:1077D000214AD2690243204BDA6104E01E4AD26991
:1077E00082431D4BDA61704729B11B4AD2680243BC
:1077F000194BDA6004E0184AD2688243164BDA600B
:10780000704729B1144A12690243134B1A6104E00C
:10781000114A12698243104B1A617047124940396C
:10782000086070470F49C86470470B49C8717047BA
:107830000948406A40F08070074948627047014635
:107840000020054A92680A400AB1012000E00020A9
:107850007047014988727047001002400000FFF82D
:10786000FFFFF6FE000042428004424200127A000E
:1078700000093D00541000206410002010B504469B
:10788000FE48844209D101214806FFF7BAFF0021D2
:107890004FF00070FFF7B5FF08E001218806FFF701
:1078A000B0FF00214FF08060FFF7ABFF10BD30B597
:1078B000024600200023146824F0020414601468B7
:1078C00044F00104146000E05B1C546804F00104FF
:1078D0001CB94FF6FF74A342F6D1546804F00104BA
:1078E0000CB900206CE08C79012C04D1146844F0B0
:1078F0008004146003E0146824F080041460CC79E0
:10790000012C04D1146844F04004146003E01468AE
:1079100024F0400414600C7A012C04D1146844F063
:107920002004146003E0146824F0200414604C7AEE
:10793000012C04D1146844F01004146003E01468AE
:1079400024F0100414608C7A012C04D1146844F0E3
:107950000804146003E0146824F008041460CC7A6E
:10796000012C04D1146844F00404146003E014688A
:1079700024F0040414608C78A407CD7844EA0564EC
:107980000D7944EA05444D7944EA05540D886D1E8D
:107990002C43D461146824F001041460002300E037
:1079A0005B1C546804F001041CB14FF6FF74A34241
:1079B000F6D1546804F001040CB1002000E001206D
:1079C00030BD10B50021837A012202FA03F1AC4ADE
:1079D000126842F00102AA4B1A60A94A1C321268CE
:1079E0008A43A74B1C331A60027BCAB9A44A0C32E3
:1079F00012688A43A24B0C331A604288C38842EA59
:107A000003439F4A4032847A42F8343002888388A4
:107A100042EA03439A4A4032847A02EBC40253603A
:107A2000027B012A19D1964A0C3212680A43944B00
:107A30000C331A604288038842EA0343904A40327A
:107A4000847A42F83430C288838842EA03438C4AFD
:107A50004032847A02EBC4025360C27A3AB9884A4F
:107A6000121D12688A43864B1B1D1A6006E0844A69
:107A7000121D12680A43824B1B1D1A60028932B91B
:107A80007F4A143212688A437D4B14331A6002898C
:107A9000012A06D17A4A143212680A43784B143309
:107AA0001A60427B012A06D1754A1C3212680A43C9
:107AB000734B1C331A60724A126822F00102704B39
:107AC0001A6010BD00218171C17101724172817211
:107AD000C1728170C17003210171022141710121C4
:107AE000018070476649096841F00101644A1160EC
:107AF0001146096843F60E729143614A11601146BE
:107B0000096841EA002111601146096821F001016C
:107B10001160704721B1026842F48032026003E0D4
:107B2000026822F4803202607047E1B1026842F0DC
:107B3000800202604FF4C272125842F480734FF414
:107B4000C27213504FF4CA72125842F480734FF449
:107B5000CA7213504FF4D272125842F480734FF429
:107B6000D27213501BE0026822F0800202604FF4D0
:107B7000C272125822F480734FF4C27213504FF441
:107B8000CA72125822F480734FF4CA7213504FF421
:107B9000D272125822F480734FF4D272135070478D
:107BA00010B502460020936803F08063B3F1806F44
:107BB00000D110E0936803F00063B3F1006F01D1CE
:107BC000012008E0936803F08053B3F1805F01D196
:107BD000022000E00420042879D002F5C07303EBF2
:107BE00000131B6803F0010402F5C07303EB0013DC
:107BF0001C600B7A7BB94B7A0C8843EA445302F53C
:107C0000C07404EB00142468234302F5C07404EB31
:107C10000014236010E00B7A4C6843EAC4034C7AEA
:107C2000234302F5C07404EB00142468234302F5D7
:107C3000C07404EB001423608B7A03F00F038B7283
:107C400002F5C07303EB00135B6823F00F0402F529
:107C5000C07303EB00135C6002F5C07303EB001309
:107C60005B688C7A234302F5C07404EB00146360F4
:107C70008B7B1C064B7B44EA034403E0006400401A
:107C8000006600400B7B44EA0323CC7A234302F5D1
:107C9000C07404EB0014A3608B7C1C064B7C44EA8C
:107CA00003440B7C44EA0323CC7B234302F5C074DA
:107CB00004EB0014E36002F5C07303EB00131B68D0
:107CC00043F0010402F5C07303EB00131C6010BD08
:107CD00010B50246002321B1012907D002290FD196
:107CE00009E09068F94C00EA04030BE09068F84C56
:107CF00000EA040306E09068F64C00EA040301E0A1
:107D0000002300BF00BFF44C181BA34216D007DCB1
:107D100083B16FF08060184470B1022818D111E06F
:107D2000B0F5007F10D0ED4C204448B1B0F5003FD5
:107D30000ED10BE002230DE000230BE0002309E04D
:107D4000002307E0012305E0012303E0012301E014
:107D5000002300BF00BFD8B210BD21B1012907D058
:107D600002290FD109E0826842F0800282600AE0B5
:107D7000826842F40042826005E0826842F40002B8
:107D8000826000E000BF00BF704710B500F5D873F7
:107D900003EB01131B6803F004031372137A53B946
:107DA00000F5D87303EB01131B6840F2FF7404EA7B
:107DB0005353136009E000F5D87303EB01131B68FC
:107DC0006FF0604404EAD303536000F5D87303EB0B
:107DD00001131B6803F00203537200F5D87303EB21
:107DE00001135B6803F00F03937200F5D87303EB84
:107DF00001135B681B0AD37400F5D87303EB0113FE
:107E00009B68D37200F5D87303EB01139B681C0ABF
:107E1000147300F5D87303EB01139B681C0C5473A7
:107E200000F5D87303EB01139B681B0E937300F5E9
:107E3000D87303EB0113DB68D37300F5D87303EB3E
:107E40000113DB681C0A147400F5D87303EB0113EB
:107E5000DB681C0C547400F5D87303EB0113DB686A
:107E60001B0E937421B9C36843F02003C36003E081
:107E7000036943F02003036110BD21B9C26842F0D9
:107E80002002C26003E0026942F0200202617047F2
:107E90000246002019B9D36803F0030006E0012967
:107EA00003D1136903F0030000E00020704710B510
:107EB00002460B4600204FF6FF71BBB9146824F050
:107EC000020444F00104146000E0491E546804F008
:107ED0000304012C01D00029F7D1546804F00304F5
:107EE000012C01D0002032E0012030E0012B13D121
:107EF000146824F00304146000E0491E546804F080
:107F000003040CB10029F8D1546804F003040CB147
:107F100000201CE001201AE0022B17D1146824F085
:107F2000010444F00204146000E0491E546804F0A7
:107F30000304022C01D00029F7D1546804F0030493
:107F4000022C01D0002002E0012000E0002010BD42
:107F5000014600200A6822F0010242F002020A6093
:107F60004A6802F00302022A00D10120704701464C
:107F70004FF6FF7200200B6823F002030B6000E055
:107F8000521E4B6803F00203022B01D1002AF7D1E5
:107F90004B6803F00203022B00D00120704701461A
:107FA00000208A6902F070007047014600208A694B
:107FB000100E7047014600208A69C2F307407047DF
:107FC0001AB143690B43436102E043698B43436148
:107FD000704710B50246002001F4700343B1936965
:107FE000C1F3130423400BB101202DE000202BE04E
:107FF00001F0807343B15368C1F3130423400BB104
:10800000012021E000201FE001F0006343B19368EC
:10801000C1F3130423400BB1012015E0002013E04D
:1080200001F0007343B1D368C1F3130423400BB1D3
:10803000012009E0002007E01369C1F31304234085
:108040000BB1012000E0002010BD0022244B99421A
:1080500002D10023836111E0C1F3130201F0007328
:108060000BB1C2600AE001F080630BB1026105E070
:1080700001F000630BB1826000E04260704702468D
:10808000002002EA01030BB1012000E0002070474C
:1080900070B504460D46002660692840002872D05D
:1080A000B5F5807F69D01DDC082D42D006DC012D9E
:1080B0002DD0022D31D0042D7FD134E0102D3ED0B3
:1080C000202D42D0402D78D145E00000030000046F
:1080D0000003000800000310000100080001FFF782
:1080E0007000F030B5F5004F61D009DCB5F5007FC8
:1080F0004AD0B5F5806F4DD0B5F5006F5DD150E039
:10810000B5F5803F2DD0B5F5003F56D12FE0A068E2
:108110005549FFF7B4FF064651E0E0680321FFF739
:10812000AEFF06464BE0E0680821FFF7A8FF0646D1
:1081300045E0E0681021FFF7A2FF06463FE0206916
:108140000321FFF79CFF064639E020690821FFF76D
:1081500096FF064633E020691021FFF790FF0646A0
:108160002DE060680821FFF78AFF064627E0606877
:108170001021FFF784FF064621E0A0690121FFF7E7
:108180007EFF06461BE01BE0A0690221FFF777FF98
:10819000064614E0A0690421FFF771FF06460EE0D1
:1081A0000BE0A0697021FFF76AFF064607E06068F0
:1081B0000421FFF764FF064601E0002600BF00E04F
:1081C0000026304670BDB1F5007F3AD00FDC202983
:1081D00028D006DC01291CD004291DD0082940D153
:1081E0001DE0402921D0B1F5807F3AD126E0B1F5DC
:1081F000004F31D006DCB1F5806F25D0B1F5006FAE
:108200002FD124E0B1F5803F12D0B1F5003F28D145
:1082100011E0154A826025E00822C26022E01022A7
:10822000C2601FE0082202611CE01022026119E016
:108230000822426016E01022426013E004224260ED
:1082400010E0042242600DE0042242600AE00022B5
:1082500082610422426005E00022826104224260C1
:1082600000E000BF00BF70470101010010B50446E7
:10827000FB48844209D101218803FFF7B5FA0021A8
:108280004FF48040FFF7B0FA32E0F648844209D15B
:1082900001214804FFF7B5FA00214FF40030FFF741
:1082A000B0FA25E0F048844209D101218804FFF7A3
:1082B000A8FA00214FF48020FFF7A3FA18E0EB485A
:1082C000844209D10121C804FFF79BFA00214FF431
:1082D0000020FFF796FA0BE0E548844208D101211F
:1082E0000805FFF78EFA00214FF48010FFF789FA96
:1082F00010BD2DE9F04786B005460E460024A24683
:1083000000BFA1460027B08900B100BF2F462C8ACC
:108310004CF6FF700440F08804432C82AC894EF682
:10832000F3100440B088318908437189084304433D
:10833000AC81AC8A4FF6FF400440B0890443AC8264
:1083400001A8FFF7CAF9C648874202D1DDF810A09C
:1083500001E0DDF80CA0A88900F4004040B10AEB70
:10836000CA0000EB0A1031684900B0FBF1F807E0E1
:108370000AEBCA0000EB0A1031688900B0FBF1F883
:108380006420B8FBF0F004012009642101FB10898E
:10839000A88900F4004040B1322000EBC900B0FBD6
:1083A000F1F000F00700044308E0322000EB091070
:1083B0006421B0FBF1F000F00F0004432C8106B003
:1083C000BDE8F0874FF41651016000218180C18023
:1083D00001810C21418100218181704710B5024645
:1083E0000020108A4FF2FF0318400B884C8823436B
:1083F0008C882343CC8823431843108210BD00216E
:10840000018041808180C180704721B1828942F41E
:108410000052828104E082894DF6FF731A40828106
:108420007047F0B50346002400260025002040F6E2
:108430006A17B94200D100BF1846C1F3421401F0D7
:108440001F06012707FA06F5012C01D10C3004E0C4
:10845000022C01D1103000E014301AB107682F430C
:10846000076002E00768AF430760F0BD1AB1838A76
:108470000B43838202E0838A8B4383827047028AA4
:108480004FF6F0731A400282028A0A430282704752
:1084900082894FF2FF731A40828182890A43828166
:1084A000704721B1828942F00202828104E0828910
:1084B0004FF6FD731A4082817047028A4FF6DF73D0
:1084C0001A400282028A0A430282704721B1028A5C
:1084D00042F48042028204E0028A4BF6FF731A40A3
:1084E00002827047C1F30802828070470146888883
:1084F000C0F308007047818941F001018181704714
:10850000028BD2B20283028B42EA012202837047BD
:10851000028B02F47F420283028B0A43028370477C
:1085200021B1828A42F02002828204E0828A4FF6E0
:10853000DF731A408282704721B1828A42F01002B2
:10854000828204E0828A4FF6EF731A40828270477B
:1085500021B1828A42F00802828204E0828A4FF6C8
:10856000F7731A408282704721B1828942F4004237
:10857000828103E08289C2F30E028281704721B1B9
:10858000828A42F40062828204E0828A4FF2FF73A0
:108590001A4082827047828A4FF6FB731A408282A9
:1085A000828A0A438282704721B1828A42F00202A3
:1085B000828204E0828A4FF6FD731A4082827047FD
:1085C00002460020B1F5007F00D100BF13880B40A8
:1085D0000BB1012000E00020704701F40072B2F5F9
:1085E000007F00D100BFCA430280704770B50246C9
:1085F000002400230025002040F66A16B14200D175
:1086000000BFC1F3421501F01F03012606FA03F370
:10861000012D02D19689334006E0022D02D1168A3F
:10862000334001E0968A33400C12012606FA04F426
:108630001688344013B10CB1012000E0002070BD59
:1086400010B50022002340F66A14A14200D100BFF9
:108650000A1201249440A3B2DC43048010BD000040
:10866000003801400044004000480040004C0040F9
:1086700000500040704700001CB50C46064B7B4480
:1086800069460090204600F0D0FC04460020694670
:1086900000F0DEFC20461CBDCF0900000FB41CB565
:1086A000084B06AA7B4469460090059800F0BDFC83
:1086B00004460020694600F0CBFC20461CBC5DF857
:1086C00014FB0000A909000070B504468569006824
:1086D000C10601D5302600E02026C00707D070BDB6
:1086E000D4E9012130469047206A401C20626D1E6B
:1086F000F6D570BD70B5044685690078C00707D10E
:1087000070BDD4E9012120209047206A401C2062DE
:108710006D1EF6D570BD70B50C460546012A05D014
:108720002878800600D5EA69002302E0012305E0ED
:108730005B1C934202D2E05C0028F9D1A869E618DC
:10874000C01AA861286A184428622846FFF7BCFFAF
:1087500004E0D5E9012114F8010B9047B442F8D3A5
:108760002846FFF7C7FF70BD2DE9F04106460024FB
:1087700010687529314616A510D000F0C2F90028FE
:1087800002DA404213A507E031688A0701D512A535
:1087900002E0490704D511A5012401E000F0BAF96F
:1087A00000210A2206F1240709E0B0FBF2FCB0FB2D
:1087B000F2F302FB1C00303078541846491C0028A4
:1087C000F3D123462A463046BDE8F04100F0ABB96C
:1087D000000000002D0000002B0000002000000021
:1087E000F0B40D460188090502D5214C7C4402E015
:1087F0001F4C7C440E34002100F1240608E002F0F6
:108800000F071209E75D42EA03721B097754491CFE
:1088100052EA0307F3D102780023120704D5702D22
:1088200006D009B1022311342246F0BC00F07BB916
:1088300001231034F8E770B504460D462146106850
:1088400000F068F9024629462046BDE87040002342
:10885000C6E7D21D22F00703D3E90023C0E703686F
:10886000126843F0200303600823C3610023B7E7C5
:10887000DC2C00002DE9F05F894604464FF0000A29
:10888000DFF874B1FB44C0F820A02046E1688847B7
:10889000002874D0252806D0D4E901219047206A09
:1088A000401C2062F1E700265F462046E1688847C9
:1088B0002028054607DB312D05D2781910F8200C49
:1088C00008B10643F1E7B00701D526F00406C4F865
:1088D0001CA00027C4F818A02A2D09D0284601F0B2
:1088E000ABFA38B304EB8708303DC8F8185019E0EC
:1088F00059F8041B204604EB87029161E168884720
:10890000012F054618D1E069002820DA26F020065C
:108910001DE0D8F8180000EB800005EB400030386F
:10892000C8F818002046E1688847054601F084FA37
:108930000028EED1012F0AD02E2D08D12046E16863
:1089400088477F1C0546022F46F02006C4DBA0693D
:10895000002803DA404246F00106A061F00701D08A
:1089600026F010066C2D0BD0682D09D04C2D39D077
:108970006A2D35D0742D35D07A2D33D016E038E0FD
:10898000E1682F4620468847B842054609D16C2F3A
:1089900026D04FF48060E1680643204688470546AC
:1089A00004E06C2F1AD04FF4807006430DB3A5F18C
:1089B0004100192802D8203546F400664A46294667
:1089C000204626604E46FDF7CBFB80B101280BD038
:1089D000F61D26F0070000F1080956E74020E4E7FD
:1089E0008020D8E70020D6E706F104094DE72846A5
:1089F00052E7206ABDE8F09F6C2C000010B5431CC4
:108A000002E010F8011B71B18107FAD14FF0013279
:108A100002C88C1A8C4314EAC211F9D0C01A0A0693
:108A200003D0C01E10BDC01A10BD0A0401D0801EA4
:108A300010BD0902FCD0401E10BD421E12F8013FBD
:108A4000002BFBD111F8013B002B02F8013BF9D1BF
:108A500070474FF000020429C0F0128010F0030CA0
:108A600000F01B80CCF1040CBCF1020F18BF00F821
:108A7000012BA8BF20F8022BA1EB0C0100F00DB8D0
:108A80005FEAC17C24BF00F8012B00F8012B48BF2E
:108A900000F8012B70474FF0000200B513469446D2
:108AA0009646203922BFA0E80C50A0E80C50B1F146
:108AB0002001BFF4F7AF090728BFA0E80C5048BF5A
:108AC0000CC05DF804EB890028BF40F8042B08BFF8
:108AD000704748BF20F8022B11F0804F18BF00F8F4
:108AE000012B7047704770477047704710B500F012
:108AF000A3FB006810BD10B5044600F09DFB0460A8
:108B000010BD09684A0501D540B27047C905FCD5BA
:108B100000B2704709684A0501D5C0B27047C9055F
:108B2000FCD580B270472DE9F0470D469946924634
:108B3000044600F124080168880604D5E06921F0A4
:108B40001001216000E00120A84201DD471B00E088
:108B50000027A1697A1902EB0900081AA0612078A0
:108B6000C00602D42046FFF7AFFD002608E0D4E996
:108B700001211AF806009047206A401C761C2062EA
:108B80004E45F4DB2078C0060AD52046FFF79CFD51
:108B900006E0D4E9012130209047206A401C206281
:108BA000381EA7F10107F4DC07E0D4E9012118F829
:108BB00005009047206A401C2062281EA5F101058F
:108BC000F3DC2046FFF796FD2078000602D5022050
:108BD000BDE8F0870120FBE711680268006A5305D1
:108BE00001D508700AE0D30501D5088006E0130618
:108BF00003D5C217C1E9000200E0086001207047F8
:108C000070472DE9FF4F0C461E464FF0FF378BB0E3
:108C1000D2E90001DDF860800A908A46C1F30A5566
:108C200005B93D46002108464FF00000BAF1000F9B
:108C300000F4400005DA00EB80004FF4400101EA47
:108C400050004FEA9059B9F1010F00DDB9460A987A
:108C500050EA4A000ED044F61050A5F2FF354543C5
:108C60002F14B8F1000F1ED07542291E1EDDC9F168
:108C700000021CE0B8F1010F4FF0000001D03021DC
:108C800003E0F24305E02154401CB042FBDB3046D8
:108C90000022002121540B99C1F80880C1E900206D
:108CA0000FB0BDE8F08FBD1B6D1CDEE74A4600DA51
:108CB000694206A800F060FB06AB93E8070003AB2F
:108CC00083E8070050460A9900F064FC8DE807002D
:108CD000A0F500501F3800900398002D0ADD42F2E5
:108CE0001F014A460844002303A90390684600F088
:108CF000CDFE09E0A0F500504A461F38002303A925
:108D00000390684600F0D7FE8DE807000004000CD1
:108D100003D04FF0FF30410800E01046B8F1000FDB
:108D200003D00022009215461EE0751E05D400F007
:108D300087FA303262556D1EF9D5B34601220843D9
:108D400002D000227F1C04E02078302801D10022CC
:108D50007F1E002A099784D01DE0112D07DA00F04C
:108D60006FFA303262556D1C50EA0102F5D10843AA
:108D700002D00098C8B10EE00021681E05E0235C17
:108D8000625C63542254401E491C8142F7DBAB46AF
:108D9000A81B401E0990002004F80B000B98099AAC
:108DA000C0F80880C0E9002B7AE711264FF00008D0
:108DB00057E72DE9F04F88460446D21D22F00701FF
:108DC00091B0D1E90001CDE90A0100F0ABFF024604
:108DD0000B98C00F01D02D2007E02068810701D536
:108DE0002B2002E0202101EAC000032A099001D0D3
:108DF000072A05DB03464146204600F067FA0BE1EF
:108E00002078800601D5E06900E00620B8F1650F02
:108E1000814606D0B8F1660F18D0B8F1670F70D14F
:108E200031E00020B9F1110F009001DB112301E0C6
:108E300009F101030AAA01A90CA8FFF7E2FEDDE986
:108E40000C70002609F10105834647E001204B46DE
:108E500000904FF000470AAA01A90CA8FFF7D1FE25
:108E6000DDE90DB00C995D46002610B909F101004D
:108E70000D18B9EB050003D4C0F1FF3609F1010567
:108E8000A5EB09002BE0B9F1010F01DA4FF0010960
:108E90000020B9F1110F0090484601DD112300E0D8
:108EA00003460AAA01A90CA8FFF7ABFEDDE90C7086
:108EB0004D4600268346207800070AD4AB4500DAE9
:108EC0005D4601A8012D04DD411911F8011C30296E
:108ED00007D04F4502DA17F1040F04DA0120824669
:108EE0000FE06D1EEEE7002F02DCED1B3E4403E0B9
:108EF000781CA84200DD7D1CB81B00F1010A4FF070
:108F000000472078000703D4AA4501DB4FF0FF3A61
:108F10000021B7F1004F0DF143088DF8431024D024
:108F200002202B23002F01DA7F422D230A21021E6B
:108F3000A0F1010000DC5FB197FBF1FC97FBF1F2BF
:108F400001FB1C7C17460CF1300C08F801CDEEE754
:108F5000A8F1010003702188090501D5452100E031
:108F60006521A0F1010800F8011C09980FA9A1EBE7
:108F70000807FF1D00B10120411901EBEA70A1694A
:108F80003844081A401EA0612078C00602D420464A
:108F9000FFF79AFB099828B1D4E901219047206A8C
:108FA000401C20622078C00622D52046FFF78CFBAB
:108FB0001EE0002E04DBB34502DD01A8805D00E069
:108FC0003020D4E901219047206A401C2062761CA1
:108FD000AAF101005FEA000A0AD100F029F9C0688D
:108FE0000168405CD4E901219047206A401C20625E
:108FF000281EA5F10105DCDC07E0D4E9012118F801
:10900000010B9047206A401C2062381EA7F101071F
:10901000F3DC2046FFF76EFB032011B041E60000B1
:1090200001694A1C02610878704700B58FB0CDE92C
:1090300001310021059105497944CDE9031011461C
:109040006846FFF717FC0FB000BD0000E5FFFFFF0B
:109050000A6802F8010B0A60704710B5436913B142
:10906000AFF3008001E0FFF756FB012010BD12783E
:1090700000F124010A7000224A700122EDE7116814
:109080004FF0FF32E9E700002DE9FF5F15468A4601
:109090000446DFF8AC80F8440027D8E900103E46CB
:1090A000CDE9001010E03AF816106A4602A800F068
:1090B000D5F9411C07D02178890603D5E269391812
:1090C00091420DD80744761C2078800602D5E069CD
:1090D000B84205DDAE42E6DB3AF816000028E2D1E0
:1090E000A069C01BA0612046FFF7EEFAD8E9001086
:1090F000CDE90010002017E03AF818106A4602A8DF
:1091000000F0ACF9B0F1FF3F81460BD000250DF126
:10911000080B05E0D4E901211BF8050090476D1C00
:109120004D45F7D308F10100B0428046E4DB206AE8
:10913000384420622046FFF7DDFABDE8FF9F0000BB
:10914000F62400002DE9F0418046D21D22F00702EE
:109150000025D2E90002F52915A614D0011E72F1EE
:10916000000106DA0023D0EB030063EB020211A634
:1091700008E0D8F800108B0701D50FA602E04907D8
:1091800001D50EA601251146002408F1240704E0AC
:1091900000F056F830323A55641C50EA0102F7D11B
:1091A0002B46324621464046BDE8F041FFF7BBBCA6
:1091B000000000002D0000002B0000002000000037
:1091C00030B4002100F1240408E002F00705D208C1
:1091D000303542EA4372DB086554491C52EA030504
:1091E000F3D10468002310A2250707D5A40600D4F4
:1091F00021B1C46901230DA2641EC46130BCFFF714
:1092000092BC10B5044621461068FFF783FC024665
:109210002046BDE810400023D2E7D21D22F007010E
:10922000D1E90023CCE7000000000000300000007E
:10923000004870470418002000487047E4170020D9
:1092400030B5B0F10A024FEA900E71F100034EEA18
:10925000817EB0EB0E0061EB91014FEA101E4EEAE9
:10926000017E10EB0E0041EB11114FEA102E4EEA79
:10927000016E10EB0E0041EB11214FEA104E4EEA49
:10928000014E10EB0E0041EB1141401841F100017D
:109290004FEAD00040EA41704FEAD10110EB80055F
:1092A0004FEA810444EA907444EB01046D1944EBE5
:1092B0000404521BA3414FF0000348BF0A3200D5FB
:1092C00030BD401C41F1000130BD00002DE9F041EE
:1092D0001F46044603260168072A01F4006004DBE8
:1092E00008B116A505E016A503E008B115A500E034
:1092F00015A521F010002060A069C01EA0610FB16B
:10930000401EA0612046FFF7DFF94FB1D4E90121EB
:1093100038469047206A401C2062C01C206206E04C
:10932000206AFAE7D4E9012115F8010B9047761E6F
:10933000F8D22046FFF7DEF9BDE8F0814E414E003D
:109340006E616E00494E4600696E660010B5436955
:1093500013B1AFF3008001E0FFF796FE012010BDCE
:10936000128800F1240182840022C2840122EDE7E8
:1093700011684FF0FF32E9E72DE9F04781461646C4
:109380008AB0354878440DC88DE80D0032487844DD
:10939000801C03AC0DC884E80D0041F69B300844E6
:1093A000372190FBF1F290FBF1F5A5F1800501FB6F
:1093B00012041B3C02D56442012000E00020DFF8CB
:1093C00098A080460027FA44AAF1BE0A0EE0E00702
:1093D0000AD03246684607EB470101230AEB8101B8
:1093E00000F069FB8DE8070064107F1C002CEED1B3
:1093F000194F7F44AE3F19E0E80715D007EB041082
:109400000DF1180A90E80E008AE80E00C068F042DC
:1094100001D1981908903246012306A903A800F04B
:109420004AFB03AB83E807006D10641C002DE3D1F9
:109430004FF0010332466946B8F1000F03A802D08D
:1094400000F024FB01E000F036FBC9E90001C9F897
:1094500008200AB0BDE8F0879422000070B51646D7
:109460000C46054600F044F8036893F80101012812
:1094700006D0FF2C0FD8185D68B101202C7070BD8C
:10948000D3F807013246214603F207130344284666
:10949000BDE8704018474FF0FF3070BD004870477E
:1094A000E41700207546FFF7F9FFAE460500694650
:1094B000534620F00700854618B020B5FDF7DEFDC5
:1094C000BDE820404FF000064FF000074FF00008C5
:1094D0004FF0000B21F00701AC46ACE8C009ACE846
:1094E000C009ACE8C009ACE8C0098D46704700006F
:1094F00010B5FFF79DFE001D10BD00BF9D130000BD
:1095000010B50446AFF300802046BDE81040FCF7DC
:109510008ABE00004FF0013C50F8042B51F8043B88
:109520009A4221D1A2EB0C03934313EACC1317D137
:1095300050F8042B51F8043B9A4215D1A2EB0C03CE
:10954000934313EACC130BD150F8042B51F8043B8E
:109550009A4209D1A2EB0C03934313EACC13DBD05C
:109560004FF00000704700BFD01A01BAB1FA81F184
:1095700001F0180122FA01F0CB40C1F12001DBB269
:10958000C0B2C01A2CFA01F3D11A914311EAC311E7
:10959000E6D170475FEA400C08BF91F0000F4FEA38
:1095A0008C234FEAC12243EA51514FEA1C5018BFA5
:1095B00000F5F0404FEA300018BF41F000415FEA8B
:1095C0006C5C00F02980BCF1FF3F08BF40F0804098
:1095D0007047130C06BF12044FF0100C4FF0000C34
:1095E000130E04BF12020CF1080C130F04BF12017A
:1095F0000CF1040C930F04BF92000CF1020CD30F7A
:1096000004BF52000CF1010C11464FF00002A0F112
:109610001F00A0EB0C00704711F0004F08BF70470F
:1096200031F000413FF4D5AF0B0C06BF09044FF0F9
:10963000100C4FF0000C0B0E04BF09020CF1080CCB
:109640000B0F04BF09010CF1040C8B0F04BF890040
:109650000CF1020CCB0F04BF49000CF1010CCCF152
:109660002003A0EB0C0022FA03F302FA0CF241EA09
:10967000030100F10100704720F07F4C80EA0300F5
:1096800023F07F47ACEB070303F57C5300F0004069
:1096900003F1FF032DE980494FEA154B09B44FEA66
:1096A000144325EA0B4E24EA03480FF2042606EB86
:1096B000132749083E785FEA320203FB0667C7F5C5
:1096C000000707FB06F64FEA54374FEAD64606F185
:1096D000020607FB066CCCF1005C4FEA1C472CEA43
:1096E000074C07FB06F40CFB06F504EB15464FEAA6
:1096F000961634BF00204FF000404FEAD13706FBEA
:1097000007FC4FEA1C4C0CFB0BF7D21B03FB0CF7BE
:1097100061EB07010CFB0EF7B0EB074072EB174251
:109720000CFB08F734BFA2EB0742B2EB074261EB38
:1097300017414FEA0C444FEA910706FB07FC4FEA3A
:109740001C4C0CFB0BF7B0EBC74072EB573203FB22
:109750000CF734BFA2EBC742B2EBC74261EB573103
:109760000CFB0EF7B0EBC70072EB57720CFB08F75F
:1097700034BFA2EBC702B2EBC70261EB5771039F84
:109780004FEA816141EA921104EBCC044FEAD137F0
:109790004FEA826206FB07FC42EA90124FEA8060C1
:1097A0004FEA1C4C0CFB0BF7D21B03FB0CF761EBD5
:1097B00007010CFB0EF7B0EB074072EB17420CFBF6
:1097C00008F734BFA2EB0742B2EB074261EB174147
:1097D0004FEA8C554FEA910704EB9C2406FB07FCEB
:1097E0004FEA1C4C0CFB0BF7B0EBC74072EB573247
:1097F00003FB0CF734BFA2EBC742B2EBC74261EBED
:1098000057310CFB0EF7B0EBC70072EB57720CFB35
:1098100008F734BFA2EBC702B2EBC70261EB577186
:1098200015EB4C254FEA816141EA92114FEA8262C1
:109830004FEAD13742EA901206FB07FC44F10004DC
:109840004FEA80604FEA1C4C0CFB0BF7D21B03FB6A
:109850000CF761EB07010CFB0EF7B0EB074072EB66
:1098600017420CFB08F734BFA2EB0742B2EB0742EA
:1098700061EB174115EB1C154FEA813141EA92412A
:109880004FEA823242EA90424FEA80304FEA0C7649
:1098900044F1000448EA03434EEA0B484FF0000E3F
:1098A000B2EB080C71EB030724BF624639464EEB5E
:1098B0000E0E4FF0000B0018524149414BEB0B0BC1
:1098C000B2EB080C71EB03077BF1000B24BF62467F
:1098D00039464EEB0E0E4FF0000B00185241494135
:1098E0004BEB0B0BB2EB080C71EB03077BF1000B9E
:1098F00024BF624639464EEB0E0E51EA020718BFEE
:1099000046F0010616EB0E7655F1000254F1000107
:1099100003D5BDE88901BDE80088BDE88901BDE83F
:109920000048B619524141EB0101A3F10103704710
:1099300080807F7E7D7C7B7A79787776767574738C
:10994000727171706F6E6E6D6C6C6B6A6A6968684B
:10995000676666656464636362616160605F5F5EE1
:109960005E5D5D5C5C5B5B5A5A5959585857575657
:1099700056555555545453535252525151505050BC
:109980004F4F4F4E4E4D4D4D4C4C4C4B4B4B4A4A0E
:109990004A49494948484847474747464646454552
:1099A000454444444443434343424242424141418B
:1099B000002B9C4630D477002BD01CB54FEA3707DC
:1099C00003B44FF010004FF01001BAF1000F06D0B1
:1099D000BCF1000FDCBF40F0080040F008014FF080
:1099E00000000FBCBDE810400BF1010BBBF1010FF3
:1099F00008BF5FEA170722BF12F1010211F101014E
:109A00004FF0004143F1000300F0004043EA000042
:109A10007047F9D35708D0E746EA064613F1400FDE
:109A20004FEA16461FDD13F1200FDFBF16430A462B
:109A3000002120335B42BED0C3F1200746EA064630
:109A400002FA07F74FEA164646EA0706C3F120076F
:109A500022FA03F201FA07F721FA03F14FF00003AB
:109A600042EA0702A7E746EA020646EA06464FEA46
:109A7000164646EA0106BCBF46EA0646360C4FF0DB
:109A800000034FF000024FF0000194E72DE9804CF5
:109A90009A46934670B491E8380007C831EA400C02
:109AA00048BF34EA430C03D5FFF7E6FDFFF780FF1C
:109AB000F0BCBDE8008C2DE9804C9A46934670B40A
:109AC00091E8380007C810F0804F08BF13F0804FAE
:109AD00003D100F005F8FFF76BFFF0BCBDE8008C88
:109AE00020F07F4780EA030023F07F4C07EB0C0354
:109AF000A3F57C5300F00040A3F1FE0392F0000FA9
:109B000000F0B38095F0000F00F077802DE9014957
:109B10004FEA11404FEA144621EA004800FB06FCD8
:109B200024EA064708FB06F607FB08F800FB07F7E0
:109B300018EB06484CEB164C4FEA124B18EB074853
:109B40004FEA15464CEB174022EA0B4E0BFB06FC86
:109B500025EA06470EFB06F607FB0EFE0BFB07F792
:109B60001EEB064E4CEB164C4FF000061EEB074E5C
:109B70004CEB174B18EB0B0840F1000018EB0E0BE9
:109B800058EB000840F100008F1A4FF000013CBF75
:109B9000C943661B14BFB5EB040C00213CBFC9438D
:109BA000F61B4FEA17444EEA8E0E27EA04454FEAA9
:109BB0001C4704FB07622CEA074C05FB07F70CFB6C
:109BC00005F604FB0CFC16EB074642EB174216EBBE
:109BD0000C4642EB1C421BEB060658EB02024141CD
:109BE00046EA9E0601D5BDE80189B619524141EB0E
:109BF0000101A3F10103BDE801894FEA14454FEAD1
:109C0000114724EA054621EA074C05FB07F406FB49
:109C100007F70CFB06F105FB0CFC11EB074144EBCD
:109C200017444FEA124711EB0C4144EB1C4422EA63
:109C3000074C05FB07F206FB07F70CFB06F605FBD6
:109C40000CFC16EB074642EB174216EB0C4642EBB8
:109C50001C456A1854F1000148BF7047B6195241BB
:109C600041EB0101A3F10103704795F0000F37D0DC
:109C70004FEA11424FEA144721EA024624EA074C10
:109C800002FB07F106FB07F70CFB06F402FB0CFCDA
:109C900014EB074441EB17414FEA154714EB0C4412
:109CA00041EB1C4125EA074C02FB07F506FB07F7D1
:109CB0000CFB06F602FB0CFC16EB074645EB1745C2
:109CC00016EB0C4645EB1C42121951F1000148BF3E
:109CD0007047B619524141EB0101A3F101037047EE
:109CE0004FEA14454FEA114724EA054621EA074C9A
:109CF00005FB07F106FB07F70CFB06F24FF0000629
:109D000005FB0CFC12EB074241EB174112EB0C4236
:109D100051EB1C4148BF7047921841EB0101A3F180
:109D200001037047490050EAC12018BF04204A0DC2
:109D300018BF40F0010040F2FF72B2EB515F08BF64
:109D400040F00200012808BF052070472DE9F041CE
:109D50004F1E00EBC7010446D1E9000115461E461F
:109D600037F006020DD02A46334601F025F87F1E53
:109D700004EBC703D3E9002300F0A4FD37F006028B
:109D8000F1D1022F25D0042F13D0062F18BFBDE824
:109D9000F0812A46334601F00FF8D4E90A2300F097
:109DA00091FD2A46334601F007F8D4E9082300F074
:109DB00089FD2A46334600F0FFFFD4E9062300F070
:109DC00081FD2A46334600F0F7FFD4E9042300F072
:109DD00079FD2A46334600F0EFFFD4E9022300F074
:109DE00071FD2A46334600F0E7FFD4E90023BDE8C1
:109DF000F04100F067BD0000002213461046014903
:109E000000F01CBE0000F03F00F05CBD00221346D5
:109E10001046114600F012BE40F2013200204FF011
:109E2000E04101F00DBB0000024A0020110701F0E3
:109E300007BB000001FDFFFF30380A2801D20120D6
:109E400070470020704700002DE9F04D1D460C467C
:109E500098B0174621F0004123F00043002814BFBA
:109E60004FF0010C4FF0000C0CEB440CFE4A0CEBD5
:109E700002064FEA620C66452BD33E0018BF01264E
:109E800006EB45061644F94A964222D3F84A53EAAD
:109E9000070C02D0944205D148B918B000201146F1
:109EA000BDE8F08D002808BF4FF0000C01D04FF046
:109EB000010C0CEB440212F5001F0AD8002F14BF4E
:109EC0004FF0010C4FF0000C0CEB450212F5001F97
:109ED00007D918B03A462B462146BDE8F04DFFF7AA
:109EE00093BF0022DFF88CA3002CB8BF534526DABD
:109EF000DFF884C36345A8BF022220DADFF870C30D
:109F00009C451CDCDFF874C30CEB235CBCF1140F24
:109F100008DDCCF1340627FA06FC0CFA06F6BE4240
:109F20000DD108E05FB9CCF1140623FA06FC0CFA57
:109F300006F69E4203D10CF00102C2F1020251EA80
:109F4000000C19D1002D17DA002C18BF022A01D0FD
:109F5000012A07D00220FEF7CEFD18B0BDE8F04D73
:109F6000FFF74ABF0220FEF7C6FDFFF745FF18B016
:109F700081F00041BDE8F08DB7F1000C6CD1534584
:109F800025D104F1804212F5801201BF0028002083
:109F9000B74918B008BFBDE8F08DB548884207DC66
:109FA000002DA1BF6046294618B0BDE8F08D07E03E
:109FB000281E05DA80F0004118B06046BDE8F08D3B
:109FC000AF497944D1E9000118B0BDE8F08DDFF860
:109FD000A0C2634525D1002D1FDA19B1514512D118
:109FE000D8B909E0002840F0EC82A24A214618B016
:109FF00062F31E01BDE8F08D0020214618B060F329
:10A000001E01BDE8F08D08DA18B02346BDE8F04D1A
:10A0100002460020614600F011BD18B02146BDE89F
:10A02000F08D514518DAB5F1804F0DD0A5F1005CE7
:10A03000BCF1FF5C10D1B4F1000C0DDB18B061462F
:10A04000BDE8F04D00F0ECBB234618B00246BDE879
:10A05000F04D194600F0B0BE060024F0004C3BD194
:10A06000D9B1514533D1002C06DD002DA1BF002010
:10A07000514618B0BDE8F08D002C01DD002D1BDB32
:10A08000002C13DA002D11DB012A4FF0000014BF61
:10A0900078497C4918B0BDE8F08D022A18BF002C21
:10A0A0000AD0012A08D1002C06DA0AE0002CB8BF39
:10A0B000002D11DA012A04D0002018B00146BDE8B5
:10A0C000F08D18B000204FF00041BDE8F08DA1F1F7
:10A0D0004050B0F17F601AD0012000EBE47050EAEC
:10A0E000020421D0624C521E4FF0000B104304BFFB
:10A0F0004FF0000B644C654883427CDD644A654840
:10A1000093421FDD884217DB002D25DB37E0002C52
:10A1100000DA4AB1022A0CBF01204FF0FF3018B01C
:10A12000BDE8F04D00F0E2BD0120FEF7E4FC18B000
:10A13000BDE8F04DFFF76ABE4D4A8A4202DC002DB1
:10A140000ADC1CE0814202DA002D18DA04E0484BF8
:10A15000994220DD002D12DD0220FEF7CCFCFFF736
:10A160005BFE05460E46002253465846214600F047
:10A1700023FE18B066F31E012846BDE8F08D0220CC
:10A18000FEF7B9FCFFF750FE0A46214618B062F30D
:10A190001E01BDE8F08D00223046614601F032F824
:10A1A00080460E466FF0010201F04AF94FF0553239
:10A1B000394B00F035FF4246334600F0FDFD0022EA
:10A1C000364B00F02DFF824642463346049110463E
:10A1D000194600F0F1FD5246049B00F0EDFD8A4661
:10A1E00000904FF0C0422E4B4046314600F0E4FD57
:10A1F0002C4A2B4B00E027E0CDE9060151460098A0
:10A2000000F0DAFD82460191274A284B404631464C
:10A2100000F0D2FD5246019B00F0F4FF82460B464F
:10A2200002460591DDE9060100F04CFBDDE906235D
:10A2300000268846304600F0E5FF5246059B00F0B8
:10A24000EFFE024600F07EB90020B1F5801F07DA6C
:10A2500035223046614601F0F3F806466FF03400CF
:10A2600000EB215024E00000FFFF1F00FFFF0F0064
:10A270000000F03F0000F07F0000404301FCFFFFC2
:10A28000D21500000000F0FF0000F0BF0000E04128
:10A290000000F043FFFFEF3F5555D53F0000E03F82
:10A2A0004715F73FFE822B6544DF5DF80BAE543E49
:10A2B000A0F2FF300190C1F3130040F07F6141F044
:10A2C00040510291FE498842D8BF002004DDFD497B
:10A2D0008142C8BF012001DD0D9008E000200D90F3
:10A2E0000198401C01900298A0F5801002900299FC
:10A2F000F54878440B910D9900EBC100D0E900239B
:10A300000F9330460A920B9900F07CFFCDE90601CD
:10A31000DDE90A2130460F9B00F0D4FA02460B46D5
:10A320000020EA4900F08AFB059102460B460090A6
:10A33000DDE9060100F040FD1490E5488A464FF043
:10A34000000878440299006812904FF0005040EAEB
:10A3500061010D980F9B01EB804000F500210991F0
:10A360000A9A129800F04EFF32460B9B00F058FEFE
:10A370004246534600F020FD0646029140465146B3
:10A38000099B129A00F018FDDDE9062300F048FE53
:10A390003246029B00F036FF059B009A00F00CFD50
:10A3A0000091149A049053461046194600F004FD9B
:10A3B00006460246C7480B46029106217844FFF73D
:10A3C000C5FCCDE90510029B32461046194600F047
:10A3D000F3FCDDE9053200F0EFFC0591064653463B
:10A3E00040461946149A00F06DFA009B049A00F05A
:10A3F000E3FC3246059B00F065FACDE905104246C4
:10A4000053461046194600F0D7FC0022B24B029189
:10A410000A9000F057FADDE9053200F053FA0E46D3
:10A420004246AD4B404600F0EDFE029B0A9A00F01A
:10A43000E9FEDDE9053200F0F3FD424602910A90A3
:10A4400033461046514600F0B7FCCDE906015346AD
:10A45000149A02990A9800F0AFFC8A46029033469B
:10A4600042460099049800F0A7FC5346029A00F077
:10A4700029FA82460B4602460591DDE9060100F005
:10A4800021FADDE9062300208846064600F0BAFEE0
:10A490005246059B00F0C4FD824609914FF0604290
:10A4A0008E4B3046414600F087FC049006918C4A62
:10A4B0008A4B5046099900F07FFC82460291894AF6
:10A4C000894B3046414600F077FC5246029B00F033
:10A4D000F9F9864B7B440D9A03EBC203D3E90023C1
:10A4E00000F0F0F90E900791019800F0FFFB059144
:10A4F000DDE9061382460E9A049800F0E3F97C4ADF
:10A500007A440D9B02EBC303D3E90023009302922C
:10A5100000F0D8F95246059B00F0D4F90026884691
:10A5200052463046059B00F06DFE009B029A00F0FB
:10A5300069FE069B049A00F065FE079B0E9A00F0E8
:10A540006FFD024600200B4602903846294600F077
:10A5500033FC824601912B4638461946029A00F098
:10A5600051FE3246434600F027FC5246019B00F064
:10A57000A9F907468A46324643462946029800F022
:10A580001BFC05460E463A46534600F09BF9594AD5
:10A590008846914221DBA8EB020353EA000210D166
:10A5A0002A46334600F02EFECDE90401524A534BB1
:10A5B0003846514600F086F9DDE9042300F0FAFC44
:10A5C00021D20220FEF797FAFFF726FC0A46214621
:10A5D00018B062F31E01BDE8F08D494B28F000422F
:10A5E0009A4210D3474A08EB020353EA00027FF471
:10A5F000C6AD2A46334600F005FE3A46534600F003
:10A60000D9FC7FF6BCAD0022019228F000403E4903
:10A610003E4A01EB2051824223DA481C4FF480115C
:10A6200021FA00F040443A4AC0F30A517A44394BC7
:10A63000A1F2FF31CB4020EA0303C0F3130040F442
:10A640008010C1F11401C84012680190B8F1000FE8
:10A65000BCBF404201902846314600F0D3FD05467C
:10A660000E462A4633463846514600F02BF94FF045
:10A6700000084246284B4046059100F09DFBCDE97D
:10A680000601264A264B4046059900F095FB0091AD
:10A6900002902A4633464046059900F0B3FD3A46FB
:10A6A000534600F0BDFC1F4A1F4B00F085FB009B8A
:10A6B000029A00F007F90746884602460B4635E045
:10A6C0008E9803007AB60B00121200000000F03FD3
:10A6D00052120000781100000000084009C7EE3F48
:10A6E000FD033ADCF5015B14E02F3EBE5010000084
:10A6F0001410000000009040FE822B654715973C27
:10A7000000CC904000346F3F01FCFFFF0000E03FB1
:10A71000680F0000FFFF0F00432EE63F396CA80CC6
:10A72000615C20BEEF39FAFE422EE63FDDE906010C
:10A7300000F0C8F8DDE9062305460E4600F062FD8C
:10A740003A46434600F06CFC0F462A4633460090DA
:10A750001046194600F030FB824602462E488846D5
:10A760000B4605217844FFF7F1FA5246434600F0C4
:10A7700023FB2A46334600F053FC80468A463B467C
:10A7800028463146009A00F017FB3B46009A00F03D
:10A7900099F80691009000224FF0804340465146C0
:10A7A00000F030FD0F460C90424653462846314695
:10A7B00000F002FB3B460C9A00F040F9069B009A21
:10A7C00000F020FD2A46334600F01CFD0022134B0A
:10A7D00000F026FC054601980E4601EB00510815D5
:10A7E000002810DC28463146019A00F029FEFFF7C8
:10A7F00099FA042808BFFFF717FB28463146019A4B
:10A8000000F01EFE05460B4618B02A465846214663
:10A81000BDE8F04D00F0D0BA000E00000000F03F9F
:10A820002DE9F04106460F4600F006FC041E0D46D9
:10A8300018BF0120284320F00040C0F17F6000F1E4
:10A84000E040C00F0ED0301C18BF0120384320F06C
:10A850000040C0F17F6000F1E040C00F04BF012064
:10A86000FEF749F920462946BDE8F08110B50029D8
:10A870000AD00878002807D005487844FEF74AFE39
:10A88000002801D0002010BD0248784410BD00000F
:10A89000DA0D0000D20D000010B500290AD00878AA
:10A8A000002807D005487844FEF734FE002801D080
:10A8B000002010BD0248784410BD0000CA0D000001
:10A8C000C20D000010B591EA030F48BF83F00043AA
:10A8D00000F1A084841A71EB030C05D2121943EB2A
:10A8E0000C03001B61EB0C01DFF824E14FEA11546B
:10A8F000A4EB135C1EEA430F18BF9EEA445F73D0BB
:10A9000023EA0E03DCF1200E21EA045143F4801304
:10A9100032D322FA0CFE10EB0E0023FA0CFE41EBB0
:10A920000E01CCF1200E03FA0EFE10EB0E0051F1D9
:10A930000001B1F5801FCCF1200E32D201EB0451A1
:10A9400012FA0EF2BDE8104058BF7047401C38BFE5
:10A950005FEA420218BF7047002814BF20F00100D0
:10A9600041F100014FEA410313F5001F38BF704762
:10A97000A1F1C04100F018BB012A43EB0302ACF186
:10A98000200CDCF11F0E32BF4FF0000E23FA0CF347
:10A9900010EB030041EB0451B4EB115FD0D0A1EBFD
:10A9A000045101F5801149085FEA300001EB0451C0
:10A9B0000ED350F1000038BF12FA0EFE08D1BDE8E8
:10A9C0001040C9E7401C38BF5FEA4202CAD1C3E762
:10A9D000BDE810404FEA410313F5001F38BF704730
:10A9E000A1F1C04100F0E0BA9EEA445F08D011EA4C
:10A9F0005E0FBDE8104004BF01F000410020704729
:10AA0000BDE8104070B500F081FA00BF64FBBE3EA7
:10AA10000000E0FF02494FF0000000F0DFBC00BF83
:10AA20000000F87F491058BFC1F140415B1058BF8A
:10AA3000C3F140438B42EFF3008070472DE9C041E2
:10AA400030B4DFF8A0C23CEA111418BF3CEA13147A
:10AA500000F0EC8081EA03051CEA111444EAD57485
:10AA600018BF1CEA131500F0C780A4EB05044FF0D3
:10AA7000004545EAC12145EAC32341EA505143EA72
:10AA8000525304F17F74994204F500344FEAC02018
:10AA90004FEAC22208BF904200F09C804FEA136543
:10AAA0000FF24016765D4FEA134506FB05F7C7F136
:10AAB000807706FB07F74FEAD737A7FB0368764294
:10AAC000C8F58038A7FB06CE38BFA8F1010807FB00
:10AAD00008E64FF0000EA6FB028CE6FB03CEDCF18D
:10AAE000000CCEF1004E38BFAEF1010EA6FB0C58A3
:10AAF0004FF000074FF00005E6FB0E87A1FB08C6EC
:10AB0000A0FB07CE16EB0E0645F10005E1FB07653D
:10AB100015F1E04E7EBFA4F580345FEA46066D4134
:10AB200016F1800745F100054FEA17274FEA066640
:10AB300047EA0567A6F1DE46B6F1805F4FEA1525C4
:10AB40001FD9384624F0010C05EBC471BCF1FE6F2F
:10AB500001EB0C1102D8F0BCBDE8008124425CBFBF
:10AB600001F5801E9EEAC47F02D4F0BCBDE80081DE
:10AB7000244238D4F0BCA1F1C041BDE8004100F04E
:10AB800013BA4FEAD22242EA43524FEAD323A7FB39
:10AB900002864FEAD02040EA415007FB03661EEAD6
:10ABA0000E0F4FEAD12105FB026658BFA6EB0056F7
:10ABB000B6EB00564FEA520E4EEAC37E18EB0E0E6D
:10ABC00056EB530EBDD518EB02085E417F1C55F1C4
:10ABD0000005B6E74FF480154FF000074FF0000670
:10ABE0004FF00008ADE7F0BC4FF0000001F1C041AC
:10ABF00001F00041BDE8008111EA0C1F0CEA1315B9
:10AC000000D00CE013EA0C1F00F025804FF000008C
:10AC1000F0BC81EA030101F00041BDE80081F0BC15
:10AC2000BDE8004181EA030100F0BEB9F0BCBDE817
:10AC3000004170B500F06AF9097EFC3E00F007B8EB
:10AC400081EA03014FF0000001F00041704781EA02
:10AC5000030100F0A9B9F0BCBDE800414FF00000CD
:10AC600021497047FFFDFBF9F7F5F4F2F0EEEDEB4B
:10AC7000E9E8E6E4E3E1E0DEDDDBDAD8D7D5D4D3FA
:10AC8000D1D0CFCDCCCBCAC8C7C6C5C4C2C1C0BF46
:10AC9000BEBDBCBBBAB9B8B7B6B5B4B3B2B1B0AF4C
:10ACA000AEADACABAAA9A8A8A7A6A5A4A3A3A2A130
:10ACB000A09F9F9E9D9C9C9B9A99999897979695EB
:10ACC00095949393929191908F8F8E8E8D8C8C8B87
:10ACD0008B8A89898888878786858584848383820F
:10ACE000828181800000FF070000F87F10F00042A1
:10ACF00048BF4042B0FA80F310FA03F10AD0C3F122
:10AD00001D0303F580634FEA415002EB035202EB4F
:10AD1000D12170474FF000007047B0FA80F310FA6D
:10AD200003F10AD0C3F11D0303F580634FEA4150DC
:10AD30004FEA035202EBD12170474FF000007047F9
:10AD400051EA030C17D41CF5801F58BFBCF5801FB7
:10AD500000F10680994218BF704708BF90427047C3
:10AD600007D711F5801F58BF13F5801F19D49942DA
:10AD70007047894270471CF5801F08D5BCF5801FBD
:10AD8000F7D58B4218BF704708BF824270474FF417
:10AD9000001C1CEB410F38BF1CEB430F01D28B4250
:10ADA000704770B500F0B2F8922449004FF000519E
:10ADB0004FF08053FFF736BEDFF848C170B51CEA8C
:10ADC000111E1EBF1CEA13159EEA0C0F95EA0C0F0C
:10ADD00000F06F8081EA030423EA4C134EEAD47E2C
:10ADE00021EA4C1141F4801143F48013AE44A1FBDD
:10ADF000024CA0FB0365AEF17F7E361955EB0C05C6
:10AE0000A1FB034C4CF10003A0FB021C16EB0C064B
:10AE1000654153F10003094218BF46F0010613F4DF
:10AE2000007F0BD14FEA03314FEA0530340341EA8A
:10AE3000155140EA16506FF003020AE04FEAC321B1
:10AE40004FEAC520F40241EA555140EA56506FF0EE
:10AE5000020202EB2E4201EB025585EACE710AD0C6
:10AE60005FEA440C18BF24F0004450F1000041F1A7
:10AE7000000120EAD47040F2FE7C624500D270BD31
:10AE8000A84214BF4FF080444FF04044002E08BF4A
:10AE90000024BEF1806FA8BFA1F1C041BDE87040A1
:10AEA00080F282804FF0000001F1C04101F00041CA
:10AEB00070479EEA0C0F0CEA131518BF95EA0C0FA9
:10AEC00006D04FF0000081EA030E0EF0004170BD85
:10AED00000F01CF88900013E00F007B800F009B846
:10AEE0004FEA430C5FEA5C5C08D081EA030100F0A2
:10AEF0005BB84FEA410C5FEA5C5CF6D14FF00000B2
:10AF0000014970470000FF070000F87F0EF1020EB4
:10AF10002EF0030E5EF8046B364205D4012A43EB93
:10AF2000030515F5001F12D8012841EB010C1CF593
:10AF3000001F0CD80ED14FEAD17C15F5001F0CEB89
:10AF40004C0C0CF1020C08BF4CEBD37C04E04FF02E
:10AF5000080C01E04FEAD37C0CEB4C0526FA05F611
:10AF600006F00706B6F1040C06D20EEB860CBDE81F
:10AF700070404CF0010C6047DFE80CF0090B020256
:10AF80004FF000414FF00000A1F5002170BD1946BF
:10AF90001046012851EB010418BFD4F5001484BFFA
:10AFA000002001F0004170BD0808A0F500114FEA33
:10AFB0003101704753EA010C17D41CF5801F58BFAC
:10AFC000BCF5801F00F106808B4218BF704708BF98
:10AFD0008242704707D713F5801F58BF11F5801FB5
:10AFE00019D48B4270479B4270471CF5801F08D5CF
:10AFF000BCF5801FF7D5994218BF704708BF904233
:10B0000070474FF4001C1CEB430F38BF1CEB410F83
:10B0100001D2994270470FB40CBC03BCFFF7C1BE0C
:10B0200091EA030F10B581F000413FF553AC83F076
:10B03000004300F0EFB800002DE9F04101F5801C5D
:10B04000BCF5001FC0F2C3804FEA115C21EA0C512D
:10B050000CF1FD0C41F480115FEA5C0C0CF5C07C36
:10B0600001D3400049413DA4890241EA9051870241
:10B070008E0E0A0CA45D04FB04F602FB06F6C6F174
:10B080004046A4FB0662F60D46EA422606FB06F49D
:10B09000A4FB01235242C3F1404338BF5B1EA6FB11
:10B0A00002420024E6FB0324D20B42EA4446A6FBFC
:10B0B0000623A1FB02E2A3FB07E4A4184FF0000261
:10B0C00052F10002E3FB01426442C2F1404E38BF3C
:10B0D000AEF1010EA6FB04234FF00002E6FB0E3298
:10B0E000A2FB03464FF00004B61954F10004E2FB42
:10B0F0000264A1FB06E6A4FB07E816EB08064FF086
:10B10000000858F10008E4FB01687642C8F1405895
:10B1100038BFA8F10108A2FB06E4A3FB08E52D193E
:10B120004FF0000454F10004E2FB0854A1FB05E6D3
:10B13000A7FB04E818EB06084FF0000656F10006DE
:10B14000E1FB048618F1200556F10006A809A8F1D4
:10B150001B08B10908F03F08B8F10A0F40EA866001
:10B160001CD901EB0C51BDE8F08100BFFCF5EEE805
:10B17000E2DDD8D3CFCBC7C3C0BDB9B6B4B1AEAC96
:10B18000A9A7A5A3A19F9D9B9A9896959392908F0E
:10B190008D8C8B898887868584838281A0FB00685B
:10B1A00000FB01F208EB4208B8EB872807D53418FA
:10B1B00058EB0104D5D5401C51F10001D1E7341AF8
:10B1C00078EB0104CDD4401E71F10001C9E75FEABC
:10B1D0004C0C5FEA9C5C0DD105D34FF0000001F0F0
:10B1E0000041BDE8F081BDE8F04170B5FFF78EFE8B
:10B1F0006DDBFFBEBDE8F0414FF000000049704735
:10B200000000F87F10B591EA030F48BF83F00043B8
:10B210003FF560AB841A71EB030C07D212198CF066
:10B22000004C43EB0C03001B61EB0C01DFF8A4E1C5
:10B230004FEA1154A4EB135C1EEA430F18BF9EEAB9
:10B24000445F00F0B08023EA6E03524221EA0451C9
:10B25000C3EB6E0338BF5B1EDCF1200E25D322FA50
:10B260000CFE10EB0E0043FA0CFE41EB0E01CCF18C
:10B27000200E03FA0EFE10EB0E0051F10001CCF18E
:10B28000200E29D412FA0EF201EB0451BDE8104051
:10B2900058BF7047401C1CBFB2F1004F70470028D8
:10B2A0000CBF491C20F00100704712EB020E43EB6B
:10B2B000030218BF4FF0010E4EEA4202ACF1200C1F
:10B2C000DCF11E0E54D943FA0CFE10EB0E0051F1C6
:10B2D000FF31CCF11E0ED5D50EF1010E12FA0EFE85
:10B2E000404141EB010101EB445C5FEA5C5C10D939
:10B2F00010EBDE7001EB045138BFBEF1004FBDE82A
:10B30000104018BF704700280CBF491C20F00100F6
:10B31000704730D24FEAD42C11F5001124F40064A8
:10B320001BD0B1FA81F20B3AA41AA41ED2F1200369
:10B33000914030FA03F31943904001EBCC71002C9B
:10B3400001EB0451BDE81040A8BF704701F1C041B6
:10B350004FF0000001F000417047B0FA80F310FA9E
:10B3600003F100D110BDE41A173C4805C90AE4E70F
:10B3700001EB045110BD491001EB0451BDE8104030
:10B380004FEA300002E04FF0000170474A0008BF6A
:10B390000042F8D0B2F5001F28BF704701F000410D
:10B3A0004FF0000070479EEA445F07D011EA5E0F3D
:10B3B000BDE8104004BF002100207047BDE81040E8
:10B3C00070B5FFF7A3FD00BF40DFF63E83F00041FC
:10B3D000104670470000E0FFFDF7EBBC0CF00F03D8
:10B3E000092B08BF082000F059800A2B0BD0082B2E
:10B3F00018BF704708BF1CF0400F0AD04FF0000084
:10B400004FF0000170471CF0400F18BF4FF0004094
:10B4100070471CF0100F08D020F0704300F07F42FE
:10B4200042EAD3014FEA4370704700F0604021F0D8
:10B430007F4242EA000201F07F4040EA72707047AA
:10B440004FF0FF0C4CF4E06C1CEA11531CBF9CEA5B
:10B45000030C9445C2BFDA4201EB02517047002B46
:10B460000DD0BCF1000F0FD0002A01F00041A4BFA5
:10B4700041F0E04141F07F614FF00000704701F082
:10B4800000414FF00000704750EA01334FF09B0C31
:10B4900018BF4CF0806C7FF4BDAA70471CF4801F6D
:10B4A00011D01CF4E02F03D06FEACC314900704773
:10B4B0004FF04050EFF3008222F0704242EA000267
:10B4C00082F3008870474FF000007047303132330C
:10B4D00034353637383941424344454640305800C8
:10B4E00030313233343536373839616263646566FA
:10B4F0004030780004000008000000000000000256
:10B500000001000010000000000000000000F03FFB
:10B51000000000000000F83F0000000000000000F4
:10B520000000004003B8E23F0000000000000000FF
:10B5300006D0CF43EBFD4C3E033333333333E33F8D
:10B54000FFAB6FDBB66DDB3F4D268F515555D53FB9
:10B5500001411DA96074D13F65DBC9934A86CD3F87
:10B56000EF4E454A287ECA3F3E5555555555C53F75
:10B5700093BDBE166CC166BF2CDE25AF6A56113F67
:10B58000F16BD2C541BDBBBED0A4BE726937663E69
:10B5900000000000000000000000000000000000AB
:10B5A00002400000000000A0000000000540000074
:10B5B000000000C8000000000C4000000000409C9B
:10B5C00000000000194000000020BCBE0000000088
:10B5D00034400000BFC91B8E00000004B5400000CD
:10B5E000504BCFD06607E2CF010000006C41000055
:10B5F0003E8251AADFEEA73401000000D9420000CC
:10B60000DCB5A0E23A301F97FFFFFFFFB445000012
:10B61000FD25A0C8E9A3C14FFFFFFFFFFF3F0000CA
:10B620000000008000000000FF3F000000000080DC
:10B630000000000080B70008001000206800000033
:10B6400028610008E8B7000868100020E00D00003D
:10B65000446100081C00000043000000F8FFFFFFE9
:10B660000C0000000E0000000F0000002E00000083
:10B670001001000043000000F8FFFFFF00404040C1
:10B6800040404040404041414141414040404040B5
:10B690004040404040404040404040404005020261
:10B6A0000202020202020202020202020220202020
:10B6B000202020202020200202020202020290907C
:10B6C000909090901010101010101010101010107A
:10B6D00010101010101010100202020202028888CE
:10B6E00088888888080808080808080808080808DA
:10B6F00008080808080808080202020240000000C2
:10B700000000000000000000000000000000000039
:10B710000000000000000000000000000000000029
:10B720000000000000000000000000000000000019
:10B730000000000000000000000000000000000009
:10B7400000000000000000000000000000000000F9
:10B7500000000000000000000000000000000000E9
:10B7600000000000000000000000000000000000D9
:10B7700000000000000000000000000000000000C9
:10B7800000A24A04000000000000000001020304BF
:10B79000060708090A0001004A4C41553030303193
:10B7A000004E4400303030303030303030303030C7
:10B7B00030303031000000000000000000000000C8
:10B7C000000000000F0F0F0F0F0F0F0F0000000001
:10B7D0000000000000000000010203040102030455
:08B7E00006070809020406082F
:04000005080060EDA2
:00000001FF
